:020000040800F2
:1000000000500020DD0E00085D0E0008630E0008A1
:10001000690E00086F0E0008750E00080000000051
:100020000000000000000000000000007B0E00083F
:10003000870E000800000000930E00089F0E0008C5
:10004000250F0008250F0008250F0008250F0008C0
:10005000250F0008250F0008250F0008250F0008B0
:10006000250F0008250F0008250F0008250F0008A0
:10007000250F0008250F0008250F0008250F000890
:10008000250F0008250F0008250F0008250F000880
:10009000250F0008250F0008250F0008250F000870
:1000A000250F0008250F0008250F0008250F000860
:1000B000AD0E0008250F0008250F0008250F0008C9
:1000C000250F0008250F0008250F0008250F000840
:1000D000250F0008250F0008250F0008250F000830
:1000E000C10E0008250F0008250F000800000000C1
:1000F0000000000000000000000000000000000000
:0C01000000000000000000005FF808F1A3
:10010C0010B5054C237833B9044B13B10448AFF345
:10011C0000800123237010BD10000020000000009F
:10012C00F02F000808B5034B1BB103490348AFF38C
:10013C00008008BD0000000014000020F02F000813
:10014C0080B588B000AFF8607A601A460B467B81A8
:10015C0013463B810D4AFB6813600C4A7B899380E4
:10016C000A4A7B689360094A3B8993813B893B61CE
:10017C0001237B610223FB6107F1100319467868A8
:10018C0001F060F800BF2037BD4680BD2C00002078
:10019C0080B584B000AF094B9B883B6000237B602B
:1001AC000123BB60054B1B683A461146184601F00B
:1001BC0049F800BF1037BD4680BD00BF2C000020A1
:1001CC0080B483B000AF786002E07B68013B7B6059
:1001DC007B68002BF9D100BF00BF0C37BD4680BC3B
:1001EC007047000080B584B000AF094B9B883B6022
:1001FC0001237B600223FB60054B1B683A461146CA
:10020C00184601F01FF800BF1037BD4680BD00BF77
:10021C002C00002080B500AFFFF7E4FF154B1B68E6
:10022C00144A91880122184601F063FA114B9B681D
:10023C00104A91890122184601F05BFA0A20FFF757
:10024C00BFFF0C4B1B680B4A91880022184601F02B
:10025C0050FA0A20FFF7B4FF064B9B68054A9189B8
:10026C000022184601F045FA0A20FFF7A9FF00BF4B
:10027C0080BD00BF2C00002080B500AFFFF7B2FF9F
:10028C00154B1B68144A91880022184601F031FA6C
:10029C00114B9B68104A91890122184601F029FAEA
:1002AC000A20FFF78DFF0C4B1B680B4A918801222B
:1002BC00184601F01EFA0A20FFF782FF064B9B68D6
:1002CC00054A91890022184601F013FA0A20FFF71B
:1002DC0077FF00BF80BD00BF2C00002080B582B02E
:1002EC0000AF0023FB71FFF753FF164B9B68154AB9
:1002FC0091890122184601F0FCF90520FFF760FFF7
:10030C00104B1B680F4A92881146184601F0DAF917
:10031C000346FB710520FFF753FF0A4B9B68094A04
:10032C0091890022184601F0E4F90520FFF748FFF7
:10033C00FB79012B01D1002300E00123184608377B
:10034C00BD4680BD2C00002080B584B000AF0346B4
:10035C00FB71FFF747FF0023FB7331E0FA79FB7B5E
:10036C0002FA03F303F08003002B08D1184B1B682F
:10037C00174A91880022184601F0BBF907E0144B8C
:10038C001B68134A91880122184601F0B2F9104BF0
:10039C009B680F4A91890122184601F0AAF90A209C
:1003AC00FFF70EFF0A4B9B68094A918900221846F9
:1003BC0001F09FF90A20FFF703FFFB7B0133FB736E
:1003CC00FB7B072BCAD900BF00BF1037BD4680BDD1
:1003DC002C00002080B582B000AF0346FB71FFF704
:1003EC0019FF0A4B1B785B00DBB21846FFF7ACFF1A
:1003FC00FFF774FFFB791846FFF7A6FFFFF76EFFB8
:10040C00FFF73AFF00BF0837BD4680BD5D000020F6
:10041C0080B582B000AF184B1B7843F00403DAB2FE
:10042C00154B1A7000237B6003E000BF7B6801331F
:10043C007B607B68312BF8DD0F4B1B781846FFF780
:10044C00C9FF0D4B1B7823F00403DAB20A4B1A7068
:10045C0000233B6003E000BF3B6801333B603B681B
:10046C00632BF8DD044B1B781846FFF7B3FF00BF76
:10047C000837BD4680BD00BF0000002080B483B0AB
:10048C0000AF0346FB71224B1B7803F00F03DAB26B
:10049C001F4B1A70FB791B015BB203F010035AB2AD
:1004AC001B4B1B785BB213435BB2DAB2184B1A705E
:1004BC00FB791B015BB203F020035AB2144B1B787F
:1004CC005BB213435BB2DAB2114B1A70FB791B01AE
:1004DC005BB203F040035AB20D4B1B785BB2134373
:1004EC005BB2DAB20A4B1A70FB791B015BB223F0D8
:1004FC007F035AB2064B1B785BB213435BB2DAB282
:10050C00034B1A7000BF0C37BD4680BC704700BF50
:10051C000000002080B582B000AF0346FB71FB7970
:10052C001B09DBB21846FFF7A9FFFFF771FFFB7938
:10053C001846FFF7A3FFFFF76BFF00BF0837BD4658
:10054C0080BD000090B587B000AF03460A46FB7132
:10055C001346BB710E4B07F108040FCB84E80F0058
:10056C00BB799B0007F11802134453F8103CDAB224
:10057C00FB791344DBB25BB263F07F035BB2DBB29B
:10058C001846FFF7C7FF00BF1C37BD4690BD00BF24
:10059C000830000880B582B000AF78601FE0144BC3
:1005AC001B7843F00103DAB2114B1A70104B1B7815
:1005BC001846FFF70FFF7B681B781846FFF7AAFF5A
:1005CC000B4B1B7823F00103DAB2094B1A70084B62
:1005DC001B781846FFF7FEFE7B6801337B607B6857
:1005EC001B78002BDBD100BF00BF0837BD4680BD98
:1005FC000000002080B500AF00210020FFF7A2FF13
:10060C000E48FFF7C7FF01210020FFF79BFF0B48A7
:10061C00FFF7C0FF02210020FFF794FF0748FFF708
:10062C00B9FF03210020FFF78DFF0448FFF7B2FF4D
:10063C0000210020FFF786FF00BF80BD18300008A6
:10064C0080B582B000AF0346FB711B4AFB79137077
:10065C001A4B1B7823F00203DAB2184B1A70174BA3
:10066C001B7823F00103DAB2144B1A700320FFF746
:10067C0005FFFFF7CDFE052000F0B2FCFFF7C8FE2A
:10068C00052000F0ADFCFFF7C3FE0220FFF7F6FEDD
:10069C00FFF7BEFE2820FFF73DFF0C20FFF73AFFC7
:1006AC000620FFF737FF00210020FFF74BFF00BFAC
:1006BC000837BD4680BD00BF5D0000200000002053
:1006CC0080B582B000AF0123FB7110E0FB799BB2C7
:1006DC005B0099B20A230322094801F0D1F90346C1
:1006EC00002B01D1012306E0FB790133FB71FB796F
:1006FC007E2BEBD9002318460837BD4680BD00BFC2
:10070C006000002080B582B000AF0123FB7110E0C7
:10071C00FB799BB25B0099B20A230322094801F0D2
:10072C00AFF90346002B01D1FB7906E0FB790133CD
:10073C00FB71FB797E2BEBD9002318460837BD469D
:10074C0080BD00BF6000002080B582B000AF00F01B
:10075C00E5FB00F081F800F065F900F039F900F0E4
:10076C00BDF800F0E9F8364801F090FF0122202195
:10077C00344800F0BEFFC82000F032FCFFF7A0FFA9
:10078C000346FB70FB78002B07D120212D4800F08D
:10079C00C8FF962000F024FCF7E7FFF7B3FF0346F1
:1007AC00BB70BB78002B07D12021264800F0B9FF85
:1007BC00642000F015FCF7E700237B6014E00022B6
:1007CC002021204800F095FF4FF4FA7000F008FC4F
:1007DC00012220211B4800F08CFF4FF4FA7000F02E
:1007EC00FFFB7B6801337B607B68022BE7DD1648DF
:1007FC0001F016F94FF48073144A4FF4007113484A
:10080C00FFF79EFCBB781846FFF71AFFFFF7F2FEC6
:10081C0000210420FFF796FE0D48FFF7BBFE0121D7
:10082C000320FFF78FFE0B48FFF7B4FE40F6B830FD
:10083C0000F0D6FBFA21002000F098F9FEE700BF8B
:10084C00B40000200008014060000020000C0140B2
:10085C00303000083830000880B590B000AF07F198
:10086C00180328220021184602F0B4FB3B1D00227D
:10087C001A605A609A60DA601A610223BB61012324
:10088C00BB621023FB6202237B630023BB634FF428
:10089C006013FB6307F11803184601F099FA03463D
:1008AC00002B01D000F05DF90F237B600223BB60AD
:1008BC000023FB604FF480633B6100237B613B1D95
:1008CC000221184601F004FD0346002B01D000F074
:1008DC0048F900BF4037BD4680BD000080B500AF71
:1008EC00124B134A1A60114B124A5A600F4B0022DA
:1008FC009A600E4B0022DA600C4B4FF480421A6166
:10090C000A4B00225A61094B00229A61074B0022C4
:10091C00DA61064B00221A62044800F03DFF0346E0
:10092C00002B01D000F01DF900BF80BD600000203D
:10093C0000540040A086010080B586B000AF07F1DE
:10094C00080300221A605A609A60DA603B46002263
:10095C001A605A601D4B4FF080421A601B4B41F6D7
:10096C003F725A60194B00229A60184B0922DA60C8
:10097C00164B00221A61154B00229A61134801F0A4
:10098C0035FE0346002B01D000F0EBF84FF48053FA
:10099C00BB6007F1080319460C4801F0B9FF034688
:1009AC00002B01D000F0DDF800233B6000237B60BE
:1009BC003B461946054802F09BF90346002B01D033
:1009CC0000F0CFF800BF1837BD4680BDB400002042
:1009DC0080B500AF114B124A1A60104B4FF4E13244
:1009EC005A600E4B00229A600C4B0022DA600B4BC3
:1009FC0000221A61094B0C225A61084B00229A61A1
:100A0C00064B0022DA61054802F0E2F90346002B9E
:100A1C0001D000F0A6F800BF80BD00BFFC00002094
:100A2C000044004080B588B000AF07F110030022ED
:100A3C001A605A609A60DA603D4B9B693C4A43F0FD
:100A4C00100393613A4B9B6903F01003FB60FB6846
:100A5C00374B9B69364A43F020039361344B9B69B7
:100A6C0003F02003BB60BB68314B9B69304A43F0F9
:100A7C00040393612E4B9B6903F004037B607B683A
:100A8C002B4B9B692A4A43F008039361284B9B69C3
:100A9C0003F008033B603B6800223321254800F03B
:100AAC0028FE00220121244800F023FE4FF40053BD
:100ABC003B61224B7B610023BB6107F1100319469C
:100ACC001F4800F0BFFB0F233B6100237B61012318
:100ADC00BB6107F110031946194800F0B3FB33232F
:100AEC003B6101237B610023BB610223FB6107F1A6
:100AFC00100319460F4800F0A5FB01233B610123AD
:100B0C007B610023BB610223FB6107F110031946D3
:100B1C00094800F097FB00220021282000F05BFB25
:100B2C00282000F074FB00BF2037BD4680BD00BFFD
:100B3C000010024000080140000C014000001110A0
:100B4C000010014080B582B000AF78607B681B68F4
:100B5C00B3F1804F01D100F029F800BF0837BD4632
:100B6C0080BD80B400AF72B600BFFEE780B483B026
:100B7C0000AF786039603B68094A82FB031292101F
:100B8C00DB17D21A07497B6841F82320064A7B6899
:100B9C00002142F8231000BF0C37BD4680BC7047C3
:100BAC00676666663C0000204C00002080B400AFF5
:100BBC00214B1B68002B0BDD1F4B1B68013B1E4A96
:100BCC0013601D4B1B68002B02DC1C4B01221A60AE
:100BDC00194B5B68002B0BDD174B5B68013B164A0E
:100BEC005360154B5B68002B02DC144B01225A60DE
:100BFC00114B9B68002B0BDD0F4B9B68013B0E4A86
:100C0C0093600D4B9B68002B02DC0C4B01229A600D
:100C1C00094BDB68002B0BDD074BDB68013B064AFD
:100C2C00D360054BDB68002B02DC044B0122DA603D
:100C3C0000BFBD4680BC70473C0000204C0000202B
:100C4C0080B485B000AF154B9B69144A43F0010387
:100C5C009361124B9B6903F00103BB60BB680F4BA4
:100C6C00DB690E4A43F08053D3610C4BDB6903F014
:100C7C0080537B607B680A4B5B68FB60FB6823F0EE
:100C8C00E063FB60FB6843F00073FB60044AFB68A5
:100C9C00536000BF1437BD4680BC70470010024043
:100CAC000000014080B58AB000AF786007F11403F2
:100CBC0000221A605A609A60DA607B681B681D4AD1
:100CCC00934232D11C4B9B691B4A43F0080393613E
:100CDC00194B9B6903F008033B613B694FF440736C
:100CEC007B611223BB6103233B6207F1140319469A
:100CFC00124800F0A7FA124B5B687B627B6A43F0E8
:100D0C00E0637B627B6A43F002037B620C4A7B6A82
:100D1C005360094BDB69084A43F40013D361064B5B
:100D2C00DB6903F40013FB60FB6800BF2837BD468A
:100D3C0080BD00BF0054004000100240000C014078
:100D4C000000014080B582B000AF78607B681B6802
:100D5C000B4A93420FD10B4BDB690A4A23F4001365
:100D6C00D3614FF48071084800F0F0FB4FF4007130
:100D7C00054800F0EBFB00BF0837BD4680BD00BF47
:100D8C000054004000100240000C014080B584B0BB
:100D9C0000AF78607B681B68B3F1804F13D10C4BAC
:100DAC00DB690B4A43F00103D361094BDB6903F0A8
:100DBC000103FB60FB68002200211C2000F00BFAF1
:100DCC001C2000F024FA00BF1037BD4680BD00BFC8
:100DDC000010024080B588B000AF786007F11003B6
:100DEC0000221A605A609A60DA607B681B68154AA8
:100DFC00934223D1144BDB69134A43F40033D36180
:100E0C00114BDB6903F40033FB60FB680E4B9B69F1
:100E1C000D4A43F0040393610B4B9B6903F00403ED
:100E2C00BB60BB680C233B6102237B610223FB612B
:100E3C0007F110031946054800F004FA00BF2037EB
:100E4C00BD4680BD00440040001002400008014037
:100E5C0080B400AFFEE780B400AFFEE780B400AF13
:100E6C00FEE780B400AFFEE780B400AFFEE780B4CD
:100E7C0000AF00BFBD4680BC704780B400AF00BF60
:100E8C00BD4680BC704780B400AF00BFBD4680BC7F
:100E9C00704780B500AF00F087F800BF80BD000040
:100EAC0080B500AF024801F043FC00BF80BD00BF1D
:100EBC00B400002080B500AF4FF4005000F04AFCA5
:100ECC0000BF80BD80B400AF00BFBD4680BC704782
:100EDC00FFF7F8FF0B480C490C4A002302E0D458EA
:100EEC00C4500433C4188C42F9D3094A094C00236A
:100EFC0001E013600432A242FBD302F047F8FFF783
:100F0C0023FC7047000000201000002078300008FF
:100F1C001000002048010020FEE7000080B500AF63
:100F2C00084B1B68074A43F010031360032000F0C2
:100F3C0047F9002000F008F8FFF782FE002318465E
:100F4C0080BD00BF0020024080B582B000AF786049
:100F5C00124B1A68124B1B7819464FF47A73B3FB79
:100F6C00F1F3B2FBF3F3184600F05FF90346002BE4
:100F7C0001D001230EE07B680F2B0AD80022796880
:100F8C004FF0FF3000F027F9064A7B68136000230E
:100F9C0000E0012318460837BD4680BD0400002040
:100FAC000C0000200800002080B400AF054B1B781B
:100FBC001A46054B1B681344034A136000BFBD4619
:100FCC0080BC70470C0000204401002080B400AFAE
:100FDC00024B1B681846BD4680BC7047440100207C
:100FEC0080B584B000AF7860FFF7F0FFB8607B6825
:100FFC00FB60FB68B3F1FF3F05D00A4B1B781A4628
:10100C00FB681344FB6000BFFFF7E0FF0246BB68C0
:10101C00D31AFA689A42F7D800BF00BF1037BD4602
:10102C0080BD00BF0C00002080B485B000AF78609C
:10103C007B6803F00703FB600C4BDB68BB60BA6892
:10104C004FF6FF031340BB60FB681A02BB681343E7
:10105C0043F0BF6343F40033BB60044ABB68D36006
:10106C0000BF1437BD4680BC704700BF00ED00E0E8
:10107C0080B400AF044BDB681B0A03F0070318466F
:10108C00BD4680BC704700BF00ED00E080B483B06B
:10109C0000AF0346FB7197F90730002B0BDBFB7994
:1010AC0003F01F02064997F907305B09012000FA8B
:1010BC0002F241F8232000BF0C37BD4680BC7047BC
:1010CC0000E100E080B483B000AF03463960FB71EF
:1010DC0097F90730002B0ADB3B68DAB20C4997F919
:1010EC0007301201D2B20B4483F800230AE03B68AC
:1010FC00DAB20849FB7903F00F03043B1201D2B2B8
:10110C000B441A7600BF0C37BD4680BC704700BF3D
:10111C0000E100E000ED00E080B489B000AFF860C1
:10112C00B9607A60FB6803F00703FB61FB69C3F1EC
:10113C000703042B28BF0423BB61FB690433062B74
:10114C0002D9FB69033B00E000237B614FF0FF32C7
:10115C00BB6902FA03F3DA43BB681A407B699A4015
:10116C004FF0FF317B6901FA03F3D9437B680B40E5
:10117C00134318462437BD4680BC704780B582B0F7
:10118C0000AF78607B68013BB3F1807F01D3012312
:10119C000FE00A4A7B68013B53600F214FF0FF3090
:1011AC00FFF790FF054B00229A60044B07221A6050
:1011BC00002318460837BD4680BD00BF10E000E094
:1011CC0080B582B000AF78607868FFF72DFF00BF64
:1011DC000837BD4680BD80B586B000AF0346B96008
:1011EC007A60FB7300237B61FFF742FF78617A68BA
:1011FC00B9687869FFF790FF024697F90F301146EE
:10120C001846FFF75FFF00BF1837BD4680BD80B59D
:10121C0082B000AF0346FB7197F907301846FFF711
:10122C0035FF00BF0837BD4680BD80B582B000AF2A
:10123C0078607868FFF7A2FF034618460837BD466A
:10124C0080BD000080B48BB000AF786039600023A3
:10125C007B6200233B6269E101227B6A02FA03F3A1
:10126C00FB613B681B68FA691340BB61BA69FB6997
:10127C009A4240F058813B685B689A4A93425ED030
:10128C00984A934275D8984A934258D0964A9342BA
:10129C006FD8964A934252D0944A934269D8944A52
:1012AC0093424CD0924A934263D8924A934246D08E
:1012BC00904A93425DD8122B2AD8122B59D801A2EE
:1012CC0052F823F04B1300082513000837130008BD
:1012DC00791300087F1300087F1300087F130008A0
:1012EC007F1300087F1300087F1300087F1300088A
:1012FC007F1300087F1300087F1300087F1300087A
:10130C007F1300087F1300082D13000841130008F9
:10131C00794A934213D02CE03B68DB683B6229E0AE
:10132C003B68DB6804333B6224E03B68DB680833D2
:10133C003B621FE03B68DB680C333B621AE03B68A6
:10134C009B68002B02D104233B6213E03B689B6833
:10135C00012B05D108233B627B68FA691A6109E00D
:10136C0008233B627B68FA695A6103E000233B6205
:10137C0000E000BFBB69FF2B01D87B6801E07B68F4
:10138C0004337B61BB69FF2B02D87B6A9B0002E0B4
:10139C007B6A083B9B003B617B691A680F213B69A8
:1013AC0001FA03F3DB431A40396A3B6901FA03F390
:1013BC001A437B691A603B685B6803F08053002B0F
:1013CC0000F0B1804D4B9B694C4A43F00103936193
:1013DC004A4B9B6903F00103BB60BB68484A7B6ABC
:1013EC009B08023352F82330FB607B6A03F0030343
:1013FC009B000F2202FA03F3DB43FA681340FB60F5
:10140C007B68404A934213D07B683F4A93420DD08D
:10141C007B683E4A934207D07B683D4A934201D198
:10142C00032306E0042304E0022302E0012300E08E
:10143C0000237A6A02F0030292009340FA68134385
:10144C00FB602F497B6A9B080233FA6841F8232022
:10145C003B685B6803F48013002B06D02D4B9A6815
:10146C002C49BB6913438B6006E02A4B9A68BB6915
:10147C00DB43284913408B603B685B6803F4001323
:10148C00002B06D0234BDA682249BB691343CB608F
:10149C0006E0204BDA68BB69DB431E491340CB6086
:1014AC003B685B6803F40033002B06D0194B5A6879
:1014BC001849BB6913434B6006E0164B5A68BB696D
:1014CC00DB43144913404B603B685B6803F4803387
:1014DC00002B21D00F4B1A680E49BB6913430B60CC
:1014EC0021E000BF0000321000003110000022107B
:1014FC00000021100000121000001110001002401A
:10150C000000014000080140000C014000100140A7
:10151C0000140140000401400B4B1A68BB69DB430B
:10152C00094913400B607B6A01337B623B681A6884
:10153C007B6A22FA03F3002B7FF48EAE00BF00BF50
:10154C002C37BD4680BC70470004014080B489B084
:10155C0000AF786039600023FB619AE00122FB69DF
:10156C0002FA03F33A681340BB61BB69002B00F02D
:10157C008D804E4AFB699B08023352F823307B6105
:10158C00FB6903F003039B000F2202FA03F37A6951
:10159C0013407B617B68464A934213D07B68454A73
:1015AC0093420DD07B68444A934207D07B68434AF0
:1015BC00934201D1032306E0042304E0022302E05A
:1015CC00012300E00023FA6902F003029200934029
:1015DC007A699A4232D13A4B1A68BB69DB43384973
:1015EC0013400B60364B5A68BB69DB4334491340DC
:1015FC004B60334BDA68BB69DB4331491340CB603A
:10160C002F4B9A68BB69DB432D4913408B60FB69F8
:10161C0003F003039B000F2202FA03F37B61234ABE
:10162C00FB699B08023352F823107B69DA431F488D
:10163C00FB699B080A40023340F82320BB69FF2B4F
:10164C0001D87B6801E07B6804333B61BB69FF2BED
:10165C0002D8FB699B0002E0FB69083B9B00FB6026
:10166C003B691A680F21FB6801FA03F3DB431A404C
:10167C000421FB6801FA03F31A433B691A607B6887
:10168C00DA68BB69DB431A407B68DA60FB690133BB
:10169C00FB613A68FB6922FA03F3002B7FF45EAF1F
:1016AC0000BF00BF2437BD4680BC7047000001401E
:1016BC0000080140000C01400010014000140140E2
:1016CC000004014080B485B000AF78600B467B808D
:1016DC007B689A687B881340002B02D00123FB7334
:1016EC0001E00023FB73FB7B18461437BD4680BC1E
:1016FC00704780B483B000AF78600B467B80134694
:10170C007B707B78002B03D07A887B681A6103E0AE
:10171C007B881A047B681A6100BF0C37BD4680BCFD
:10172C00704780B485B000AF78600B467B807B68D7
:10173C00DB68FB607A88FB6813401A04FB68D943AA
:10174C007B880B401A437B681A6100BF1437BD4677
:10175C0080BC704780B582B000AF0346FB80084B5D
:10176C005A69FB881340002B06D0054AFB8853614D
:10177C00FB88184600F006F800BF0837BD4680BD50
:10178C000004014080B483B000AF0346FB8000BF6F
:10179C000C37BD4680BC704780B584B000AF786014
:1017AC007B68002B01D101232BE17B6893F83D3042
:1017BC00DBB2002B06D17B68002283F83C207868D2
:1017CC00FFF770FA7B68242283F83D207B681B6846
:1017DC001A687B681B6822F001021A607B681B6820
:1017EC001A687B681B6842F400421A607B681B68AD
:1017FC001A687B681B6822F400421A6000F0B0FE85
:10180C00F8607B685B68814A934207D8FB68804A22
:10181C00934294BF01230023DBB206E0FB687D4AB0
:10182C00934294BF01230023DBB2002B01D0012390
:10183C00E7E0FB68784AA2FB03239B0CBB607B6848
:10184C001B685B6823F03F017B681B68BA680A431E
:10185C005A607B681B681B6A23F03F017B685B68DE
:10186C006A4A934202D8BB68013309E0BB684FF463
:10187C00967202FB03F3694AA2FB03239B09013313
:10188C007A6812680B4313627B681B68DB6923F46C
:10189C004F4222F0FF027B685B685C498B4219D88F
:1018AC00FB68591E7B685B685B00B1FBF3F3591C4A
:1018BC0040F6FC730B40002B0AD0FB68591E7B686A
:1018CC005B685B00B1FBF3F30133C3F30B0351E033
:1018DC0004234FE07B689B68002B11D1FB68581EDA
:1018EC007B6859680B465B000B44B0FBF3F3013388
:1018FC00C3F30B03002B0CBF01230023DBB212E05C
:10190C00FB68581E7B6859680B469B000B4499007A
:10191C000B44B0FBF3F30133C3F30B03002B0CBFED
:10192C0001230023DBB2002B01D0012322E07B68D2
:10193C009B68002B0ED1FB68581E7B6859680B46C0
:10194C005B000B44B0FBF3F30133C3F30B0343F421
:10195C0000430FE0FB68581E7B6859680B469B00E0
:10196C000B4499000B44B0FBF3F30133C3F30B03AB
:10197C0043F44043796809681343CB617B681B6867
:10198C001B6823F0C0017B68DA697B681B6A1A4309
:10199C007B681B680A431A607B681B689B6823F48E
:1019AC00034323F0FF037A6811697A68D268114304
:1019BC007A6812680B4393607B681B68DB6823F0C2
:1019CC00FF017B685A697B689B691A437B681B68BB
:1019DC000A43DA607B681B681A687B681B6842F0F4
:1019EC0001021A607B6800221A647B68202283F84B
:1019FC003D207B6800221A637B68002283F83E201E
:101A0C00002318461037BD4680BD00BFA0860100DC
:101A1C007F841E00FF083D0083DE1B43D34D621004
:101A2C0080B582B000AF78607B68002B01D10123B8
:101A3C0021E07B68242283F83D207B681B681A68B0
:101A4C007B681B6822F001021A607868FFF77AF94C
:101A5C007B6800221A647B68002283F83D207B6837
:101A6C0000221A637B68002283F83E207B680022E8
:101A7C0083F83C20002318460837BD4680BD000083
:101A8C0080B58AB002AFF8607A603B600B467B8110
:101A9C00FFF79CFAF8610023BB61FB6893F83D30BB
:101AAC00DBB2202B40F01181FB690093192301223A
:101ABC008849F86800F012F90346002B01D0022384
:101ACC0004E1FB6893F83C30012B01D10223FDE0CB
:101ADC00FB68012283F83C20FB681B681B6803F041
:101AEC000103012B07D0FB681B681A68FB681B6895
:101AFC0042F001021A60FB681B681A68FB681B68DD
:101B0C0022F400621A60FB68242283F83D20FB68F3
:101B1C0000221A64FB68704ADA62FB681B681A6858
:101B2C00FB681B6842F480721A60FB6900933B6887
:101B3C0000224FF00111F86800F0D0F80346002B9A
:101B4C000DD0FB681B681B6803F48073B3F5807FB2
:101B5C0003D1FB684FF400721A640323B6E07B894F
:101B6C00DBB21A46FB681B6802F0FE021A61FFF733
:101B7C002DFAF861FB681B685B6903F00203022B0A
:101B8C000CBF01230023DBB2FB75FB681B685B6990
:101B9C0003F48063B3F5806F0CBF01230023DBB229
:101BAC00BB7525E0FFF712FA0246FB69D31A3A68B7
:101BBC009A4202D33B68002B03D1FB68A02283F826
:101BCC003D20FB681B685B6903F00203022B0CBF12
:101BDC0001230023DBB2FB75FB681B685B6903F414
:101BEC008063B3F5806F0CBF01230023DBB2BB75A0
:101BFC00FB6893F83D30DBB2A02B05D0FB7D002BAE
:101C0C0002D1BB7D002BCDD0FB68202283F83D2078
:101C1C00FB681B685B6903F00203022B29D1FB688C
:101C2C001B681A68FB681B6842F400721A60002378
:101C3C003B61FB681B685B693B61FB681B689B69CC
:101C4C003B613B69FB690093192301222149F86828
:101C5C0000F044F80346002B01D0012336E0FB686A
:101C6C00202283F83D20FB68002283F83C200023CF
:101C7C002CE0FB681B681A68FB681B6842F4007256
:101C8C001A60FB681B686FF480625A61FB690093F1
:101C9C00192301220F49F86800F020F80346002BA5
:101CAC0001D0012312E0BB690133BB61BA697B68C7
:101CBC009A42FFF432AFFB68202283F83D20FB6888
:101CCC00002283F83C20012300E002231846203731
:101CDC00BD4680BD020010000000FFFF80B584B03F
:101CEC0000AFF860B9603B601346FB7148E03B689D
:101CFC00B3F1FF3F44D0FFF769F90246BB69D31A31
:101D0C003A689A4202D33B68002B39D1BB681B0C52
:101D1C00DBB2012B0DD1FB681B685B69DA43BB6836
:101D2C0013409BB2002B0CBF01230023DBB21A46DD
:101D3C000CE0FB681B689B69DA43BB6813409BB2E1
:101D4C00002B0CBF01230023DBB21A46FB799A420D
:101D5C0016D1FB6800221A63FB68202283F83D2011
:101D6C00FB68002283F83E20FB681B6C43F02002CA
:101D7C00FB681A64FB68002283F83C20012323E0F3
:101D8C00BB681B0CDBB2012B0DD1FB681B685B69BC
:101D9C00DA43BB6813409BB2002B0CBF012300231A
:101DAC00DBB21A460CE0FB681B689B69DA43BB6824
:101DBC0013409BB2002B0CBF01230023DBB21A464D
:101DCC00FB799A4293D0002318461037BD4680BD4C
:101DDC0080B586B000AF78607B68002B01D1012301
:101DEC006CE27B681B6803F00103002B00F087801A
:101DFC00924B5B6803F00C03042B0CD08F4B5B688D
:101E0C0003F00C03082B12D18C4B5B6803F480336A
:101E1C00B3F5803F0BD1894B1B6803F40033002BC7
:101E2C006CD07B685B68002B68D1012346E27B6831
:101E3C005B68B3F5803F06D1804B1B687F4A43F447
:101E4C00803313602EE07B685B68002B0CD17B4BDE
:101E5C001B687A4A23F480331360784B1B68774AEB
:101E6C0023F4802313601DE07B685B68B3F5A02F1F
:101E7C000CD1724B1B68714A43F4802313606F4B77
:101E8C001B686E4A43F4803313600BE06B4B1B688A
:101E9C006A4A23F480331360684B1B68674A23F447
:101EAC00802313607B685B68002B13D0FFF78EF8E0
:101EBC00386108E0FFF78AF802463B69D31A642BB5
:101ECC0001D90323FAE15D4B1B6803F40033002BAB
:101EDC00F0D014E0FFF77AF8386108E0FFF776F8F5
:101EEC0002463B69D31A642B01D90323E6E1534B19
:101EFC001B6803F40033002BF0D100E000BF7B68BB
:101F0C001B6803F00203002B63D04C4B5B6803F09F
:101F1C000C03002B0BD0494B5B6803F00C03082B14
:101F2C001CD1464B5B6803F48033002B16D1434B1A
:101F3C001B6803F00203002B05D07B681B69012B87
:101F4C0001D00123BAE13D4B1B6823F0F8027B68FA
:101F5C005B69DB00394913430B603AE07B681B6912
:101F6C00002B20D0364B01221A60FFF72FF8386176
:101F7C0008E0FFF72BF802463B69D31A022B01D974
:101F8C0003239BE12D4B1B6803F00203002BF0D0C5
:101F9C002A4B1B6823F0F8027B685B69DB0027493E
:101FAC0013430B6015E0264B00221A60FFF70EF866
:101FBC00386108E0FFF70AF802463B69D31A022B96
:101FCC0001D903237AE11D4B1B6803F00203002B9C
:101FDC00F0D17B681B6803F00803002B3AD07B68B8
:101FEC009B69002B19D0174B01221A60FEF7EEFFEC
:101FFC00386108E0FEF7EAFF02463B69D31A022B70
:10200C0001D903235AE10D4B5B6A03F00203002B49
:10201C00F0D0012000F0CCFA1CE00A4B00221A6030
:10202C00FEF7D4FF38610FE0FEF7D0FF02463B69A4
:10203C00D31A022B08D9032340E100BF0010024041
:10204C0000004242800442429E4B5B6A03F0020352
:10205C00002BE9D17B681B6803F00403002B00F014
:10206C00A6800023FB75974BDB6903F08053002B94
:10207C000DD1944BDB69934A43F08053D361914B60
:10208C00DB6903F08053BB60BB680123FB758E4B8F
:10209C001B6803F48073002B18D18B4B1B688A4A86
:1020AC0043F480731360FEF791FF386108E0FEF78C
:1020BC008DFF02463B69D31A642B01D90323FDE043
:1020CC00814B1B6803F48073002BF0D07B68DB68BA
:1020DC00012B06D17B4B1B6A7A4A43F00103136236
:1020EC002DE07B68DB68002B0CD1764B1B6A754AA4
:1020FC0023F001031362734B1B6A724A23F004032F
:10210C0013621CE07B68DB68052B0CD16D4B1B6AE2
:10211C006C4A43F0040313626A4B1B6A694A43F02E
:10212C00010313620BE0674B1B6A664A23F0010341
:10213C001362644B1B6A634A23F0040313627B68CB
:10214C00DB68002B15D0FEF741FF38610AE0FEF783
:10215C003DFF02463B69D31A41F28832934201D9C2
:10216C000323ABE0574B1B6A03F00203002BEED0AA
:10217C0014E0FEF72BFF38610AE0FEF727FF02465A
:10218C003B69D31A41F28832934201D9032395E07B
:10219C004C4B1B6A03F00203002BEED1FB7D012B91
:1021AC0005D1484BDB69474A23F08053D3617B68E8
:1021BC00DB69002B00F08180424B5B6803F00C0361
:1021CC00082B61D07B68DB69022B46D13F4B002288
:1021DC001A60FEF7FBFE386108E0FEF7F7FE0246D8
:1021EC003B69D31A022B01D9032367E0354B1B68DB
:1021FC0003F00073002BF0D17B681B6AB3F5803FB2
:10220C0008D1304B5B6823F400327B689B682D4906
:10221C0013434B602B4B5B6823F474127B68196A75
:10222C007B685B6A0B43274913434B60274B0122A6
:10223C001A60FEF7CBFE386108E0FEF7C7FE0246D7
:10224C003B69D31A022B01D9032337E01D4B1B68C2
:10225C0003F00073002BF0D02FE01C4B00221A600F
:10226C00FEF7B4FE386108E0FEF7B0FE02463B69AB
:10227C00D31A022B01D9032320E0124B1B6803F065
:10228C000073002BF0D118E07B68DB69012B01D1C6
:10229C00012313E00B4B5B68FB60FB6803F480329B
:1022AC007B681B6A9A4206D1FB6803F470127B6848
:1022BC005B6A9A4201D0012300E0002318461837CC
:1022CC00BD4680BD001002400070004060004242DC
:1022DC0080B584B000AF786039607B68002B01D189
:1022EC000123D0E06A4B1B6803F007033A689A425B
:1022FC0010D9674B1B6823F0070265493B681343F1
:10230C000B60634B1B6803F007033A689A4201D0D9
:10231C000123B8E07B681B6803F00203002B20D07C
:10232C007B681B6803F00403002B05D0594B5B68DA
:10233C00584A43F4E06353607B681B6803F008035E
:10234C00002B05D0534B5B68524A43F460535360E7
:10235C00504B5B6823F0F0027B689B684D4913433C
:10236C004B607B681B6803F00103002B40D07B683B
:10237C005B68012B07D1474B1B6803F40033002B20
:10238C0015D101237FE07B685B68022B07D1414BA1
:10239C001B6803F00073002B09D1012373E03D4B44
:1023AC001B6803F00203002B01D101236BE0394BB6
:1023BC005B6823F003027B685B68364913434B6010
:1023CC00FEF704FEF8600AE0FEF700FE0246FB682A
:1023DC00D31A41F28832934201D9032353E02D4B97
:1023EC005B6803F00C027B685B689B009A42EBD144
:1023FC00274B1B6803F007033A689A4210D2244B10
:10240C001B6823F0070222493B6813430B60204BE7
:10241C001B6803F007033A689A4201D0012332E0AB
:10242C007B681B6803F00403002B08D0194B5B6816
:10243C0023F4E0627B68DB68164913434B607B68CE
:10244C001B6803F00803002B09D0124B5B6823F4C4
:10245C0060527B681B69DB000E4913434B6000F034
:10246C0021F802460B4B5B681B0903F00F030A496A
:10247C00CB5C22FA03F3094A1360094B1B6818461C
:10248C00FEF762FD002318461037BD4680BD00BF25
:10249C0000200240001002404430000804000020DC
:1024AC000800002080B487B000AF0023FB6000233D
:1024BC00BB6000237B6100237B6000233B611E4BD0
:1024CC005B68FB60FB6803F00C03042B02D0082B49
:1024DC0003D027E0194B3B6127E0FB689B0C03F012
:1024EC000F03174AD35C7B60FB6803F48033002B2B
:1024FC0010D0114B5B685B0C03F00103114AD35CE9
:10250C00BB607B680D4A02FB03F2BB68B2FBF3F3C2
:10251C007B6104E07B680C4A02FB03F37B617B6903
:10252C003B6102E0054B3B6100BF3B6918461C3721
:10253C00BD4680BC704700BF0010024000127A00FC
:10254C005C3000086C30000800093D0080B400AF1E
:10255C00024B1B681846BD4680BC70470400002027
:10256C0080B500AFFFF7F2FF0246054B5B681B0A14
:10257C0003F007030349CB5C22FA03F3184680BD32
:10258C00001002405430000880B500AFFFF7DEFFAA
:10259C000246054B5B68DB0A03F007030349CB5C7F
:1025AC0022FA03F3184680BD001002405430000894
:1025BC0080B485B000AF78600A4B1B680A4AA2FB56
:1025CC0003235B0A7A6802FB03F3FB6000BFFB6822
:1025DC005A1EFA60002BF9D100BF00BF1437BD465C
:1025EC0080BC704704000020D34D621080B582B0CF
:1025FC0000AF78607B68002B01D1012341E07B6840
:10260C0093F83D30DBB2002B06D17B68002283F8B7
:10261C003C207868FEF7BAFB7B68022283F83D20E9
:10262C007B681A687B6804331946104600F05CFA24
:10263C007B68012283F846207B68012283F83E20C8
:10264C007B68012283F83F207B68012283F84020BD
:10265C007B68012283F841207B68012283F84220A9
:10266C007B68012283F843207B68012283F8442095
:10267C007B68012283F845207B68012283F83D208A
:10268C00002318460837BD4680BD000080B485B0D5
:10269C0000AF78607B6893F83D30DBB2012B01D042
:1026AC0001233AE07B68022283F83D207B681B689B
:1026BC00DA687B681B6842F00102DA607B681B6891
:1026CC00184A93420ED07B681B68B3F1804F09D037
:1026DC007B681B68144A934204D07B681B68134ABE
:1026EC00934211D17B681B689B6803F00703FB6066
:1026FC00FB68062B10D07B681B681A687B681B680C
:10270C0042F001021A6007E07B681B681A687B685C
:10271C001B6842F001021A60002318461437BD46AC
:10272C0080BC7047002C01400004004000080040B1
:10273C0080B584B000AF78607B681B68DB68FB6099
:10274C007B681B681B69BB60BB6803F00203002B32
:10275C0020D0FB6803F00203002B1BD07B681B68A6
:10276C006FF002021A617B6801221A777B681B6882
:10277C009B6903F00303002B03D0786800F098F9F1
:10278C0005E0786800F08BF9786800F09AF97B68BE
:10279C0000221A77BB6803F00403002B20D0FB68DF
:1027AC0003F00403002B1BD07B681B686FF0040242
:1027BC001A617B6802221A777B681B689B6903F499
:1027CC004073002B03D0786800F072F905E078684C
:1027DC0000F065F9786800F074F97B6800221A77CC
:1027EC00BB6803F00803002B20D0FB6803F0080340
:1027FC00002B1BD07B681B686FF008021A617B688A
:10280C0004221A777B681B68DB6903F00303002B37
:10281C0003D0786800F04CF905E0786800F03FF9D7
:10282C00786800F04EF97B6800221A77BB6803F0D9
:10283C001003002B20D0FB6803F01003002B1BD0DF
:10284C007B681B686FF010021A617B6808221A778C
:10285C007B681B68DB6903F44073002B03D078683A
:10286C0000F026F905E0786800F019F9786800F0B6
:10287C0028F97B6800221A77BB6803F00103002B50
:10288C000CD0FB6803F00103002B07D07B681B689E
:10289C006FF001021A617868FEF754F9BB6803F017
:1028AC008003002B0CD0FB6803F08003002B07D0B7
:1028BC007B681B686FF080021A61786800F07FFA01
:1028CC00BB6803F04003002B0CD0FB6803F0400303
:1028DC00002B07D07B681B686FF040021A61786888
:1028EC0000F0F8F8BB6803F02003002B0CD0FB6859
:1028FC0003F02003002B07D07B681B686FF02002CD
:10290C001A61786800F052FA00BF1037BD4680BDDE
:10291C0080B584B000AF786039600023FB737B68AE
:10292C0093F83C30012B01D10223B4E07B680122E7
:10293C0083F83C207B68022283F83D207B681B686F
:10294C009B68BB60BB6823F07703BB60BB6823F458
:10295C007F43BB607B681B68BA689A603B681B68E6
:10296C00B3F5005F3ED0B3F5005F00F28780B3F59E
:10297C00805F00F08680B3F5805F7FD8702B1AD013
:10298C00702B7BD8602B50D0602B77D8502B3CD041
:10299C00502B73D8402B58D0402B6FD8302B64D091
:1029AC00302B6BD8202B60D0202B67D8002B5CD021
:1029BC00102B5AD062E07B6818683B6899683B68BA
:1029CC005A683B68DB6800F074F97B681B689B688D
:1029DC00BB60BB6843F07703BB607B681B68BA685D
:1029EC009A604FE07B6818683B6899683B685A6846
:1029FC003B68DB6800F05DF97B681B689A687B6854
:102A0C001B6842F480429A603CE07B6818683B6823
:102A1C0059683B68DB681A4600F0D4F87B681B6881
:102A2C005021184600F02BF92CE07B6818683B68A5
:102A3C0059683B68DB681A4600F0F2F87B681B6843
:102A4C006021184600F01BF91CE07B6818683B6895
:102A5C0059683B68DB681A4600F0B4F87B681B6861
:102A6C004021184600F00BF90CE07B681A683B68B3
:102A7C001B681946104600F002F903E00123FB73B2
:102A8C0000E000BF7B68012283F83D207B680022B8
:102A9C0083F83C20FB7B18461037BD4680BD80B4C4
:102AAC0083B000AF786000BF0C37BD4680BC704768
:102ABC0080B483B000AF786000BF0C37BD4680BCDB
:102ACC00704780B483B000AF786000BF0C37BD4650
:102ADC0080BC704780B483B000AF786000BF0C3707
:102AEC00BD4680BC7047000080B485B000AF7860F4
:102AFC0039607B681B68FB607B682F4A93420BD064
:102B0C007B68B3F1804F07D07B682C4A934203D08B
:102B1C007B682B4A934208D1FB6823F07003FB605F
:102B2C003B685B68FA681343FB607B68224A9342FC
:102B3C000BD07B68B3F1804F07D07B681F4A934260
:102B4C0003D07B681E4A934208D1FB6823F4407380
:102B5C00FB603B68DB68FA681343FB60FB6823F09F
:102B6C0080023B685B691343FB607B68FA681A6000
:102B7C003B689A687B68DA623B681A687B689A6281
:102B8C007B680D4A934203D13B681A697B681A63D0
:102B9C007B6801225A617B681B6903F00103002BDF
:102BAC0005D07B681B6923F001027B681A6100BFAA
:102BBC001437BD4680BC7047002C01400004004017
:102BCC000008004080B487B000AFF860B9607A604C
:102BDC00FB681B6A7B61FB681B6A23F00102FB68C4
:102BEC001A62FB689B693B613B6923F0F0033B6114
:102BFC007B681B013A6913433B617B6923F00A0331
:102C0C007B617A69BB6813437B61FB683A699A61A3
:102C1C00FB687A691A6200BF1C37BD4680BC7047DE
:102C2C0080B487B000AFF860B9607A60FB681B6A4B
:102C3C007B61FB681B6A23F01002FB681A62FB685D
:102C4C009B693B613B6923F470433B617B681B03CD
:102C5C003A6913433B617B6923F0A0037B61BB683A
:102C6C001B017A6913437B61FB683A699A61FB68C3
:102C7C007A691A6200BF1C37BD4680BC704780B4AD
:102C8C0085B000AF786039607B689B68FB60FB683F
:102C9C0023F07003FB603A68FB68134343F00703AF
:102CAC00FB607B68FA689A6000BF1437BD4680BC35
:102CBC00704780B487B000AFF860B9607A603B6051
:102CCC00FB689B687B617B6923F47F437B613B687A
:102CDC001A027B681A43BB6813437A6913437B61FE
:102CEC00FB687A699A6000BF1C37BD4680BC704790
:102CFC0080B485B000AF786039607B6893F83C3065
:102D0C00012B01D1022346E07B68012283F83C2091
:102D1C007B68022283F83D207B681B685B68FB6044
:102D2C007B681B689B68BB60FB6823F07003FB60CF
:102D3C003B681B68FA681343FB607B681B68FA6886
:102D4C005A607B681B68164A93420ED07B681B68DE
:102D5C00B3F1804F09D07B681B68124A934204D0B0
:102D6C007B681B68104A93420CD1BB6823F080032C
:102D7C00BB603B685B68BA681343BB607B681B68CD
:102D8C00BA689A607B68012283F83D207B68002238
:102D9C0083F83C20002318461437BD4680BC70478E
:102DAC00002C0140000400400008004080B483B0B7
:102DBC0000AF786000BF0C37BD4680BC704780B454
:102DCC0083B000AF786000BF0C37BD4680BC704745
:102DDC0080B582B000AF78607B68002B01D10123F5
:102DEC0042E07B6893F84130DBB2002B06D17B6864
:102DFC00002283F840207868FDF7ECFF7B682422E2
:102E0C0083F841207B681B68DA687B681B6822F4B6
:102E1C000052DA60786800F02BF87B681B681A693E
:102E2C007B681B6822F490421A617B681B685A69A4
:102E3C007B681B6822F02A025A617B681B68DA687F
:102E4C007B681B6842F40052DA607B6800225A648B
:102E5C007B68202283F841207B68202283F8422063
:102E6C007B6800225A63002318460837BD4680BD94
:102E7C0080B584B000AF78607B681B681B6923F455
:102E8C0040517B68DA687B681B680A431A617B686F
:102E9C009A687B681B691A437B685B691343BB6048
:102EAC007B681B68DB6823F4B05323F00C037A684F
:102EBC001268B9680B43D3607B681B685B6923F4A9
:102ECC0040717B689A697B681B680A435A617B680E
:102EDC001B682C4A934203D1FFF756FBF86002E0C3
:102EEC00FFF73EFBF860FA6813469B0013449A0008
:102EFC001A447B685B689B00B2FBF3F3224AA2FB8B
:102F0C0003235B091901FA6813469B0013449A00CA
:102F1C001A447B685B689B00B2FBF3F21A4BA3FB71
:102F2C0002035B09642000FB03F3D31A1B01323349
:102F3C00154AA2FB03235B0903F0F0031944FA685A
:102F4C0013469B0013449A001A447B685B689B00F1
:102F5C00B2FBF3F20C4BA3FB02035B09642000FBF6
:102F6C0003F3D31A1B013233074AA2FB03235B0979
:102F7C0003F00F027B681B680A449A6000BF10378D
:102F8C00BD4680BD003801401F85EB5170B5002651
:102F9C000C4D0D4C641BA410A64209D100F022F874
:102FAC0000260A4D0A4C641BA410A64205D170BD24
:102FBC0055F8043B98470136EEE755F8043B984723
:102FCC000136F2E7703000087030000870300008ED
:102FDC007430000803460244934200D1704703F852
:102FEC00011BF9E7F8B500BFF8BC08BC9E4670475A
:0C2FFC00F8B500BFF8BC08BC9E4670474A
:103008000000000040000000140000005400000010
:1030180020202020202020202020202020202020A8
:10302800202020200000000057454C434F4D000051
:103038005155592056554F4E4700000000000000DA
:103048000000000001020304060708090000000050
:103058000102030402030405060708090A0B0C0D04
:083068000E0F10100102000020
:043070003101000822
:043074000D01000842
:10307800FF00000000127A001000000001000000AC
:0400000508000EDD04
:00000001FF
