:020000040800F2
:10000000005000202D1C0008C5180008CB1800085F
:10001000D1180008D7180008DD18000800000000FB
:10002000000000000000000000000000E3180008CD
:10003000EF18000800000000FB180008071900086E
:10004000751C0008751C0008751C0008751C00084C
:10005000751C0008751C0008751C0008751C00083C
:10006000751C0008751C0008751C0008751C00082C
:10007000751C0008751C0008751C0008751C00081C
:10008000751C0008751C0008751C0008751C00080C
:10009000751C0008751C0008751C0008751C0008FC
:1000A000751C0008751C0008751C0008751C0008EC
:1000B00015190008751C0008751C0008751C00083F
:1000C000751C0008751C0008751C0008751C0008CC
:1000D000751C0008751C0008751C0008751C0008BC
:1000E00029190008751C0008751C00080000000094
:1000F0000000000000000000000000000000000000
:0C01000000000000000000005FF808F1A3
:10010C0010B5054C237833B9044B13B10448AFF345
:10011C0000800123237010BDF000002000000000BF
:10012C00E845000808B5034B1BB103490348AFF37E
:10013C00008008BD00000000F4000020E845000825
:10014C00034613F8012B002AFBD1181A013870470B
:10015C0080B483B000AF7860044A7B68012142F818
:10016C00231000BF0C37BD4680BC70470C0100202B
:10017C0080B483B000AF78607B68002B02DB7B68B7
:10018C00032B01DD00230DE0094A7B6852F8233074
:10019C00012B06D1064A7B68002142F8231001236B
:1001AC0000E0002318460C37BD4680BC704700BFEA
:1001BC000C01002080B584B000AF78607B68002B08
:1001CC0050DB7B68032B4DDC284A7B6852F82320DC
:1001DC0027497B6841F82320264A7B6852F8232064
:1001EC0022497B6841F82320234A7B6852F823205C
:1001FC0022497B6831F813301946104602F00AF98F
:10020C00034619461B4A7B6842F82310184A7B6840
:10021C0052F8232015497B6851F823309A4222D199
:10022C00124A7B6852F8232012497B6851F823301C
:10023C009A4218D10F4A7B6852F82330FB60104A5F
:10024C007B6852F82330FA689A420CD00C497B68D0
:10025C00FA6841F82320FB68002B04D17868FFF77B
:10026C0077FF00E000BF1037BD4680BD280000209E
:10027C001800002038000020000000201000002092
:10028C004800002080B582B000AF786039607B6890
:10029C00002B03D1386801F0B3FB02E0386801F0A1
:1002AC00F5FB00BF0837BD4680BD000080B58AB0A5
:1002BC0002AF7860634A7B6852F82320624B83FB61
:1002CC0002135911D317CB1A642101FB03F3D31A70
:1002DC00002B20D15B4A7B6852F823305A4A82FBB0
:1002EC0003125211DB17D31AFB617B68DBB2194680
:1002FC00002000F0F3FC7B685A1C07F10C00FB6932
:10030C0000931346514A102103F01AFD07F10C0318
:10031C00184600F00BFD4E4A7B6852F823300A3B1E
:10032C00032B00F2848001A252F823F04903000849
:10033C009F03000807040008D30300087B68002B08
:10034C0013D1434A7B680B2142F8231000217868B3
:10035C00FFF798FF3F4B1B684FF47A7202FB03F3D5
:10036C001946786801F036F968E0394A7B680D2146
:10037C0042F8231002217868FFF784FF364B1B6884
:10038C004FF47A7202FB03F31946786801F022F9F4
:10039C0054E000217868FFF775FF304A7B6852F80B
:1003AC002330012B45D12A4A7B680D2142F82310BA
:1003BC00294B1B684FF47A7202FB03F319467868D9
:1003CC0001F008F935E002217868FFF75BFF234A5A
:1003DC007B6852F82330012B2DD11D4A7B680C21F0
:1003EC0042F823101E4B1B684FF47A7202FB03F386
:1003FC001946786801F0EEF81DE001217868FFF7E6
:10040C0041FF164A7B6852F82330012B15D1104A54
:10041C007B680B2142F823100E4B1B684FF47A7249
:10042C0002FB03F31946786801F0D4F805E000BF2D
:10043C0004E000BF02E000BF00E000BF00BF2037B7
:10044C00BD4680BD480100201F85EB5100460008C9
:10045C005C000020640000206C000020580100208B
:10046C006800002080B500AF134B1B68012B21D115
:10047C000020FFF71BFF0120FFF718FF0020FFF7FC
:10048C0077FE0346012B06D10C4B1B680C4A1360FC
:10049C00094B02221A600320FFF76AFE0346012B68
:1004AC0008D1054B05221A6000F070FC19210220BE
:1004BC0001F090F800BF80BD5800002064000020BF
:1004CC002401002080B584B000AF786039603868B2
:1004DC00FFF736FE0346BB600023FB60BB680F2BA7
:1004EC0006DCBB68C3F11003DA0F13445B10FB602E
:1004FC00FB68DBB27A68D2B21146184600F0EEFB0C
:10050C00386800F013FC00BF1037BD4680BD0000FA
:10051C0080B500AF0B4B1B68002B08D10A4900209B
:10052C00FFF7D0FF09490120FFF7CCFF07E008498E
:10053C000020FFF7C7FF07490120FFF7C3FF00BFEB
:10054C0080BD00BF28010020104600081C46000892
:10055C002C4600083C46000880B500AF2D4B1B68AC
:10056C00052B56D1FFF7D4FF0320FFF701FE0346FE
:10057C00012B0FD1032001F043FA032001F086FA7E
:10058C00254B0A221A60244B0A225A60012000F0E3
:10059C0089F83EE00120FFF7EBFD0346012B0BD160
:1005AC001E4B00221A6000F065F81D4B01221A60E8
:1005BC00FA21022001F00EF80220FFF7D9FD0346C4
:1005CC00012B0BD1154B01221A6000F053F8144B80
:1005DC0001221A60FA21022000F0FCFF114B9B68EB
:1005EC00012B16D10E4B1B68C3F101030C4A13608F
:1005FC000B4B1B68012B02D100F03CF805E00320EB
:10060C0001F0FEF9032001F041FAFA21022000F07A
:10061C00E1FF80BD580000205C0000202801002074
:10062C001C0100205801002080B584B000AF786018
:10063C0039603868FFF784FD0346BB600023FB601C
:10064C00BB680F2B06DCBB68C3F11003DA0F134435
:10065C005B10FB60FB68DBB27A68D2B211461846BD
:10066C0000F03CFB386800F061FB00BF1037BD4662
:10067C0080BD000080B500AF094B1B68002B06D174
:10068C00002001F0BDF9022001F000FA05E0022083
:10069C0001F0B6F9002001F0F9F900BF80BD00BFF0
:1006AC002801002080B582B000AF7860032001F0F3
:1006BC00A7F9032001F0EAF900F068FB064A7B6811
:1006CC0013601921022000F085FF044B00221A60F0
:1006DC0000BF0837BD4680BD580000202001002017
:1006EC0080B586B000AF786039607B68042B13D07E
:1006FC007B68042B15DC7B68022B03D07B68032BF7
:10070C0005D00EE012490020FFF78EFF0EE01149D4
:10071C000020FFF789FF09E00F490020FFF784FF55
:10072C0004E00E490020FFF77FFF00BF07F108002F
:10073C003B680B4A102103F003FB07F10803194631
:10074C000120FFF771FF00BF1837BD4680BD00BF09
:10075C004846000850460008584600086046000805
:10076C007046000880B500AF534B1B68042B6DD04E
:10077C00042B00F39D80022B02D0032B33D097E087
:10078C004E4B1B6819460220FFF7AAFF0020FFF70B
:10079C00EFFC0346012B06D1494B1B68474A1360FB
:1007AC000320FFF77FFF0120FFF7E2FC0346012B3C
:1007BC000BD1424B1B680133404A13603F4B1B6803
:1007CC00632B02DD3D4B01221A600220FFF7D0FCA7
:1007DC000346012B03D1394B1B683A4A13600020A6
:1007EC0001F098F965E0354B1B6819460320FFF7BB
:1007FC0077FF0020FFF7BCFC0346012B06D1324BE0
:10080C001B682E4A13600420FFF74CFF0120FFF7F2
:10081C00AFFC0346012B0BD1284B1B680133274A35
:10082C001360264B1B68632B02DD244B01221A60DC
:10083C000220FFF79DFC0346012B03D11F4B1B68C5
:10084C00224A1360012001F065F932E01B4B1B6852
:10085C0019460420FFF744FF0020FFF789FC0346EC
:10086C00012B05D11A4B0A221A60194B0A225A6025
:10087C000120FFF77DFC0346012B0BD10F4B1B68AE
:10088C0001330E4A13600D4B1B68632B02DD0B4BBF
:10089C0001221A600220FFF76BFC0346012B03D1E7
:1008AC00064B1B680B4A1360022001F033F900E081
:1008BC0000BF00BF80BD00BF5800002024010020F5
:1008CC0068000020700000206C00002074000020E4
:1008DC005C0000207800002080B588B000AFF86084
:1008EC007A601A460B467B8113463B810D4AFB68A6
:1008FC0013600C4A7B8993800A4A7B689360094A8F
:10090C003B8993813B893B6101237B610223FB6122
:10091C0007F110031946786801F03CFB00BF203743
:10092C00BD4680BD2C01002080B584B000AF094BC2
:10093C009B883B6000237B600123BB60054B1B68DD
:10094C003A461146184601F025FB00BF1037BD464C
:10095C0080BD00BF2C01002080B483B000AF786054
:10096C0002E07B68013B7B607B68002BF9D100BF08
:10097C0000BF0C37BD4680BC7047000080B584B00A
:10098C0000AF094B9B883B6001237B600223FB601B
:10099C00054B1B683A461146184601F0FBFA00BF9E
:1009AC001037BD4680BD00BF2C01002080B500AFC4
:1009BC00FFF7E4FF154B1B68144A91880122184677
:1009CC0001F03FFD114B9B68104A9189012218469A
:1009DC0001F037FD0A20FFF7BFFF0C4B1B680B4AD9
:1009EC0091880022184601F02CFD0A20FFF7B4FF75
:1009FC00064B9B68054A91890022184601F021FD9F
:100A0C000A20FFF7A9FF00BF80BD00BF2C0100200A
:100A1C0080B500AFFFF7B2FF154B1B68144A9188E5
:100A2C000022184601F00DFD114B9B68104A91896C
:100A3C000122184601F005FD0A20FFF78DFF0C4B33
:100A4C001B680B4A91880122184601F0FAFC0A2017
:100A5C00FFF782FF064B9B68054A918900221846D6
:100A6C0001F0EFFC0A20FFF777FF00BF80BD00BF4D
:100A7C002C01002080B582B000AF0023FB71FFF782
:100A8C0053FF164B9B68154A91890122184601F0B9
:100A9C00D8FC0520FFF760FF104B1B680F4A9288AB
:100AAC001146184601F0B6FC0346FB710520FFF712
:100ABC0053FF0A4B9B68094A91890022184601F0A2
:100ACC00C0FC0520FFF748FFFB79012B01D1002367
:100ADC0000E0012318460837BD4680BD2C010020DC
:100AEC0080B584B000AF0346FB71FFF747FF0023CE
:100AFC00FB7331E0FA79FB7B02FA03F303F080031A
:100B0C00002B08D1184B1B68174A918800221846F5
:100B1C0001F097FC07E0144B1B68134A91880122E3
:100B2C00184601F08EFC104B9B680F4A91890122EC
:100B3C00184601F086FC0A20FFF70EFF0A4B9B6853
:100B4C00094A91890022184601F07BFC0A20FFF724
:100B5C0003FFFB7B0133FB73FB7B072BCAD900BF65
:100B6C0000BF1037BD4680BD2C01002080B582B07F
:100B7C0000AF0346FB71FFF719FF0A4B1B785B00B4
:100B8C00DBB21846FFF7ACFFFFF774FFFB79184692
:100B9C00FFF7A6FFFFF76EFFFFF73AFF00BF08371E
:100BAC00BD4680BD7901002080B582B000AF184BE6
:100BBC001B7843F00403DAB2154B1A7000237B60E8
:100BCC0003E000BF7B6801337B607B68312BF8DD71
:100BDC000F4B1B781846FFF7C9FF0D4B1B7823F002
:100BEC000403DAB20A4B1A7000233B6003E000BF27
:100BFC003B6801333B603B68632BF8DD044B1B788F
:100C0C001846FFF7B3FF00BF0837BD4680BD00BFD5
:100C1C007C00002080B483B000AF0346FB71224BF4
:100C2C001B7803F00F03DAB21F4B1A70FB791B0110
:100C3C005BB203F010035AB21B4B1B785BB213432D
:100C4C005BB2DAB2184B1A70FB791B015BB203F082
:100C5C0020035AB2144B1B785BB213435BB2DAB26B
:100C6C00114B1A70FB791B015BB203F040035AB2B3
:100C7C000D4B1B785BB213435BB2DAB20A4B1A70A2
:100C8C00FB791B015BB223F07F035AB2064B1B7836
:100C9C005BB213435BB2DAB2034B1A7000BF0C3772
:100CAC00BD4680BC704700BF7C00002080B582B080
:100CBC0000AF0346FB71FB791B09DBB21846FFF74B
:100CCC00A9FFFFF771FFFB791846FFF7A3FFFFF7AA
:100CDC006BFF00BF0837BD4680BD000090B587B0E4
:100CEC0000AF03460A46FB711346BB710E4B07F16E
:100CFC0008040FCB84E80F00BB799B0007F11802A6
:100D0C00134453F8103CDAB2FB791344DBB25BB2F8
:100D1C0063F07F035BB2DBB21846FFF7C7FF00BF7F
:100D2C001C37BD4690BD00BF7C46000880B582B024
:100D3C0000AF78601FE0144B1B7843F00103DAB26C
:100D4C00114B1A70104B1B781846FFF70FFF7B687E
:100D5C001B781846FFF7AAFF0B4B1B7823F00103F7
:100D6C00DAB2094B1A70084B1B781846FFF7FEFED7
:100D7C007B6801337B607B681B78002BDBD100BF69
:100D8C0000BF0837BD4680BD7C00002080B500AF99
:100D9C0000210020FFF7A2FF0E48FFF7C7FF01213B
:100DAC000020FFF79BFF0B48FFF7C0FF022100203C
:100DBC00FFF794FF0748FFF7B9FF03210020FFF767
:100DCC008DFF0448FFF7B2FF00210020FFF786FFDC
:100DDC0000BF80BD8C46000880B582B000AF0346D2
:100DEC00FB711B4AFB7913701A4B1B7823F002031F
:100DFC00DAB2184B1A70174B1B7823F00103DAB2D6
:100E0C00144B1A700320FFF705FFFFF7CDFE0520EA
:100E1C0000F08EFFFFF7C8FE052000F089FFFFF7FA
:100E2C00C3FE0220FFF7F6FEFFF7BEFE2820FFF7F9
:100E3C003DFF0C20FFF73AFF0620FFF737FF00219C
:100E4C000020FFF74BFF00BF0837BD4680BD00BF39
:100E5C00790100207C00002080B582B000AF012316
:100E6C00FB7110E0FB799BB25B0099B20A23032261
:100E7C00094801F0ADFC0346002B01D1012306E02B
:100E8C00FB790133FB71FB797E2BEBD900231846E0
:100E9C000837BD4680BD00BF7C01002080B582B004
:100EAC0000AF0123FB7110E0FB799BB25B0099B2A0
:100EBC000A230322094801F08BFC0346002B01D1C5
:100ECC00FB7906E0FB790133FB71FB797E2BEBD9C7
:100EDC00002318460837BD4680BD00BF7C010020AA
:100EEC0080B582B000AF00F0C1FE00F08DF800F0CC
:100EFC0071F900F045F900F0C9F800F0F5F839483F
:100F0C0002F06CFA01222021374801F09AFAC8202D
:100F1C0000F00EFFFFF7A0FF0346FB70FB78002BE1
:100F2C0007D12021304801F0A4FA962000F000FFF0
:100F3C00F7E7FFF7B3FF0346BB70BB78002B07D175
:100F4C002021294801F095FA642000F0F1FEF7E722
:100F5C0000237B6014E000222021234801F071FA69
:100F6C004FF4FA7000F0E4FE012220211E4801F03B
:100F7C0068FA4FF4FA7000F0DBFE7B6801337B609B
:100F8C007B68022BE7DD194801F0F2FB4FF480730C
:100F9C00174A4FF400711648FFF79EFCBB781846B1
:100FAC00FFF71AFFFFF7F2FE00F0D4F9114B012204
:100FBC001A604FF4FA7200210F4800F0E5F90A228A
:100FCC0000210E4800F0E0F90A2200210C4800F044
:100FDC00DBF90A2200210B4800F0D6F900F060FA88
:100FEC00FCE700BFD0010020000801407C0100207C
:100FFC00000C014058000020B1190008ED19000840
:10100C00C5190008F919000880B590B000AF07F1B8
:10101C00180328220021184602F08AFE3B1D0022EC
:10102C001A605A609A60DA601A610223BB6101236C
:10103C00BB621023FB6202237B630023BB634FF470
:10104C006013FB6307F11803184601F069FD0346B2
:10105C00002B01D000F078F90F237B600223BB60DA
:10106C000023FB604FF480633B6100237B613B1DDD
:10107C000221184601F0D4FF0346002B01D000F0EA
:10108C0063F900BF4037BD4680BD000080B500AF9E
:10109C00124B134A1A60114B124A5A600F4B002222
:1010AC009A600E4B0022DA600C4B4FF480421A61AE
:1010BC000A4B00225A61094B00229A61074B00220D
:1010CC00DA61064B00221A62044801F00DFA03465D
:1010DC00002B01D000F038F900BF80BD7C0100204E
:1010EC0000540040A086010080B586B000AF07F127
:1010FC00080300221A605A609A60DA603B460022AC
:10110C001A605A601D4B4FF080421A601B4B41F61F
:10111C003F725A60194B00229A60184B0922DA6010
:10112C00164B00221A61154B00229A61134802F0EB
:10113C0005F90346002B01D000F006F94FF480535B
:10114C00BB6007F1080319460C4802F089FA034604
:10115C00002B01D000F0F8F800233B6000237B60EB
:10116C003B461946054802F06BFC0346002B01D0A8
:10117C0000F0EAF800BF1837BD4680BDD001002052
:10118C0080B500AF114B124A1A60104B4FF4E1328C
:10119C005A600E4B00229A600C4B0022DA600B4B0B
:1011AC0000221A61094B0C225A61084B00229A61E9
:1011BC00064B0022DA61054802F0B2FC0346002B14
:1011CC0001D000F0C1F800BF80BD00BF18020020A4
:1011DC000044004080B588B000AF07F11003002236
:1011EC001A605A609A60DA604D4B9B694C4A43F026
:1011FC00100393614A4B9B6903F01003FB60FB687F
:10120C00474B9B69464A43F020039361444B9B69CF
:10121C0003F02003BB60BB68414B9B69404A43F021
:10122C00040393613E4B9B6903F004037B607B6872
:10123C003B4B9B693A4A43F008039361384B9B69DB
:10124C0003F008033B603B6800222021354801F085
:10125C00F8F800228021344801F0F3F800226821CC
:10126C00324801F0EEF84FF400533B61304B7B6198
:10127C000023BB6107F1100319462B4800F08AFECE
:10128C0020233B6101237B610023BB610223FB61B3
:10129C0007F110031946234800F07CFE4FF48263DB
:1012AC003B6100237B610123BB6107F110031946ED
:1012BC001E4800F06FFE80233B6101237B610023FD
:1012CC00BB610223FB6107F110031946164800F0BD
:1012DC0061FE4FF440733B6100237B610123BB61D2
:1012EC0007F1100319460F4800F054FE68233B61C8
:1012FC0001237B610023BB610223FB6107F1100317
:10130C0019460A4800F046FE00220021282000F071
:10131C000AFE282000F023FE00BF2037BD4680BD0A
:10132C00001002400008014000100140000C014078
:10133C000000111080B582B000AF786000F086F824
:10134C0000BF0837BD4680BD80B400AF72B600BF89
:10135C00FEE7000080B582B000AF0023FB7106E011
:10136C00FB79184600F0F8F8FB790133FB71FB7937
:10137C00132BF5D9034B00221A7000BF0837BD465A
:10138C0080BD00BF3C01002080B485B000AFF86088
:10139C00B9607A602A4B1B78132B4AD8284B1B78E0
:1013AC001946284A0B469B000B449B0013440433FC
:1013BC00BA681A60244BD3E90023214B1B781846DA
:1013CC00BB681A441F4903469B0003449B000B4413
:1013DC0010331A601A4B1B7819461A4A0B469B009D
:1013EC000B449B00134408337A681A60144B1A7828
:1013FC00134B1B7819461046124A0B469B000B44A4
:10140C009B0013440C3318600D4B1B7819460D4A86
:10141C000B469B000B449B001344FA681A60084B64
:10142C001B780133DAB2064B1A70054B1B78013B63
:10143C0001E0034B1B7818461437BD4680BC70473F
:10144C003C010020600200204001002080B400AF6D
:10145C00064BD3E90023501C43F10001034BC3E9B5
:10146C00000100BFBD4680BC704700BF400100209A
:10147C0080B485B000AFC7E902017A607B681A4678
:10148C004FF00003D7E90201994208BF904201D303
:10149C00012300E0002318461437BD4680BC70477A
:1014AC0090B583B000AF00237B6044E0274BD3E9B9
:1014BC000001274C7A6813469B0013449B0023447D
:1014CC0010331B681A46FFF7D3FF0346002B2FD0AF
:1014DC001F497A6813469B0013449B000B441B68FE
:1014EC0098471B497A6813469B0013449B000B4496
:1014FC0008331B68002B04D17B68184600F02CF8CD
:10150C0016E013497A6813469B0013449B000B4466
:10151C00083319680D4BD3E90023134619440C48C2
:10152C007A6813469B0013449B00034410331960E4
:10153C007B6801337B60074B1B781A467B689342B0
:10154C00B4DB00BF00BF0C37BD4690BD400100208E
:10155C00600200203C010020B0B485B000AF786080
:10156C001A4B1B781A467B68934227D27B68FB6028
:10157C0017E0FB685A1C1648F9680B469B000B4495
:10158C009B001844124913469B0013449B000B44C8
:10159C0004461D460FCD0FC42B682360FB68013336
:1015AC00FB600A4B1B78013B1A46FB689342E0D365
:1015BC00064B1B78013BDAB2044B1A707B68DBB22A
:1015CC0018461437BD46B0BC704700BF3C01002024
:1015DC006002002080B483B000AF786039603B6853
:1015EC00094A82FB03129210DB17D21A07497B6857
:1015FC0041F82320064A7B68002142F8231000BFE3
:10160C000C37BD4680BC7047676666664801002093
:10161C005801002080B400AF214B1B68002B0BDD60
:10162C001F4B1B68013B1E4A13601D4B1B68002B94
:10163C0002DC1C4B01221A60194B5B68002B0BDD82
:10164C00174B5B68013B164A5360154B5B68002BCC
:10165C0002DC144B01225A60114B9B68002B0BDDF2
:10166C000F4B9B68013B0E4A93600D4B9B68002B04
:10167C0002DC0C4B01229A60094BDB68002B0BDD62
:10168C00074BDB68013B064AD360054BDB68002B3C
:10169C0002DC044B0122DA6000BFBD4680BC7047FF
:1016AC00480100205801002080B485B000AF154BD4
:1016BC009B69144A43F001039361124B9B6903F03D
:1016CC000103BB60BB680F4BDB690E4A43F08053D0
:1016DC00D3610C4BDB6903F080537B607B680A4B56
:1016EC005B68FB60FB6823F0E063FB60FB6843F026
:1016FC000073FB60044AFB68536000BF1437BD469F
:10170C0080BC7047001002400000014080B58AB0D8
:10171C0000AF786007F1140300221A605A609A60D7
:10172C00DA607B681B681D4A934232D11C4B9B6963
:10173C001B4A43F008039361194B9B6903F00803A0
:10174C003B613B694FF440737B611223BB61032304
:10175C003B6207F114031946124800F01BFC124BB4
:10176C005B687B627B6A43F0E0637B627B6A43F07D
:10177C0002037B620C4A7B6A5360094BDB69084AA3
:10178C0043F40013D361064BDB6903F40013FB60D5
:10179C00FB6800BF2837BD4680BD00BF0054004029
:1017AC0000100240000C01400000014080B582B0E6
:1017BC0000AF78607B681B680B4A93420FD10B4BD0
:1017CC00DB690A4A23F40013D3614FF48071084893
:1017DC0000F064FD4FF40071054800F05FFD00BFA0
:1017EC000837BD4680BD00BF0054004000100240C9
:1017FC00000C014080B584B000AF78607B681B683A
:10180C00B3F1804F13D10C4BDB690B4A43F001034E
:10181C00D361094BDB6903F00103FB60FB68002219
:10182C0000211C2000F07FFB1C2000F098FB00BF67
:10183C001037BD4680BD00BF0010024080B588B097
:10184C0000AF786007F1100300221A605A609A60AA
:10185C00DA607B681B68154A934223D1144BDB6911
:10186C00134A43F40033D361114BDB6903F40033A7
:10187C00FB60FB680E4B9B690D4A43F004039361BC
:10188C000B4B9B6903F00403BB60BB680C233B61EF
:10189C0002237B610223FB6107F110031946054803
:1018AC0000F078FB00BF2037BD4680BD00440040EF
:1018BC00001002400008014080B400AFFEE780B485
:1018CC0000AFFEE780B400AFFEE780B400AFFEE7E8
:1018DC0080B400AFFEE780B400AF00BFBD4680BC53
:1018EC00704780B400AF00BFBD4680BC704780B469
:1018FC0000AF00BFBD4680BC704780B500AF00F0A4
:10190C00FBF900BF80BD000080B500AF024801F0BC
:10191C00B7FD00BF80BD00BFD001002080B500AF77
:10192C004FF4005000F0BEFD00BF80BD80B586B006
:10193C0000AF7860144A154BD31A7B617B693B610D
:10194C00134B1B68002B02D1114B124A1A60104B1F
:10195C001A687B6813443A699A4207D202F0BEF9BE
:10196C0003460C221A604FF0FF3309E0084B1B684A
:10197C00FB60074B1A687B681344054A1360FB68CD
:10198C0018461837BD4680BD0050002000040000EA
:10199C00680100200804002080B400AF00BFBD46E1
:1019AC0080BC704780B500AF2021024800F061FD7B
:1019BC0000BF80BD0008014080B582B000AF00239D
:1019CC007B6005E07868FEF7F5FB7B6801337B6094
:1019DC007B68032BF6DD00BF00BF0837BD4680BD1A
:1019EC0080B500AFFFF716FE00BF80BD80B500AF1D
:1019FC00FEF738FDFEF7B6FEFEF7AEFD00BF80BD6C
:101A0C0080B582B000AF78607B68022B1FD07B68FA
:101A1C00022B27DC7B68002B03D07B68012B0BD0BF
:101A2C0020E001228021174800F00BFD012240210B
:101A3C00154800F006FD20E000228021114800F03E
:101A4C0000FD01224021104800F0FBFC15E00122B2
:101A5C0080210C4800F0F5FC002240210A4800F0DF
:101A6C00F0FC0AE000228021064800F0EAFC00228B
:101A7C004021054800F0E5FC00BF00BF0837BD461B
:101A8C0080BD00BF00100140000C014080B582B049
:101A9C0000AF78607B68022B1FD07B68022B27DCA1
:101AAC007B68002B03D07B68012B0BD020E001223C
:101ABC000821174800F0C5FC01222021144800F031
:101ACC00C0FC20E000220821114800F0BAFC0122E1
:101ADC0020210F4800F0B5FC15E0012208210C482C
:101AEC0000F0AFFC00222021094800F0AAFC0AE01B
:101AFC0000220821064800F0A4FC00222021044802
:101B0C0000F09FFC00BF00BF0837BD4680BD00BF82
:101B1C00000C014080B582B000AF78607B68022B6E
:101B2C0051D07B68022B72DC7B68002B03D07B6866
:101B3C00012B24D06BE0384B1B68002B05D0374BA6
:101B4C001B68C3F10103354A1360344B1B68002B2F
:101B5C000AD00020FFF754FF0020FFF797FFFA216F
:101B6C000020FFF737FD53E00320FFF749FF032068
:101B7C00FFF78CFFFA210020FFF72CFD48E0264BE5
:101B8C001B68002B05D0254B1B68C3F10103234AAE
:101B9C001360224B1B68002B0AD00120FFF730FF8B
:101BAC000120FFF773FFFA210020FFF713FD2FE050
:101BBC000320FFF725FF0320FFF768FFFA21002021
:101BCC00FFF708FD24E0144B1B68002B05D0134BCA
:101BDC001B68C3F10103114A1360104B1B68002BE7
:101BEC000AD00220FFF70CFF0220FFF74FFFFA216B
:101BFC000020FFF7EFFC0BE00320FFF701FF0320B1
:101C0C00FFF744FFFA210020FFF7E4FC00E000BFDF
:101C1C0000BF0837BD4680BD580100206C01002074
:101C2C00FFF7BAFE0B480C490C4A002302E0D458CB
:101C3C00C4500433C4188C42F9D3094A094C00230C
:101C4C0001E013600432A242FBD302F04DF8FFF71F
:101C5C0047F9704700000020F00000200C470008F6
:101C6C00F000002004040020FEE7000080B500AF67
:101C7C00084B1B68074A43F010031360032000F065
:101C8C0047F9002000F008F8FFF70EFD0023184676
:101C9C0080BD00BF0020024080B582B000AF7860EC
:101CAC00124B1A68124B1B7819464FF47A73B3FB1C
:101CBC00F1F3B2FBF3F3184600F05FF90346002B87
:101CCC0001D001230EE07B680F2B0AD80022796823
:101CDC004FF0FF3000F027F9064A7B6813600023B1
:101CEC0000E0012318460837BD4680BD8000002067
:101CFC00880000208400002080B400AF054B1B78C6
:101D0C001A46054B1B681344034A136000BFBD46BB
:101D1C0080BC704788000020F003002080B400AF26
:101D2C00024B1B681846BD4680BC7047F003002070
:101D3C0080B584B000AF7860FFF7F0FFB8607B68C7
:101D4C00FB60FB68B3F1FF3F05D00A4B1B781A46CA
:101D5C00FB681344FB6000BFFFF7E0FF0246BB6863
:101D6C00D31AFA689A42F7D800BF00BF1037BD46A5
:101D7C0080BD00BF8800002080B485B000AF7860C3
:101D8C007B6803F00703FB600C4BDB68BB60BA6835
:101D9C004FF6FF031340BB60FB681A02BB6813438A
:101DAC0043F0BF6343F40033BB60044ABB68D360A9
:101DBC0000BF1437BD4680BC704700BF00ED00E08B
:101DCC0080B400AF044BDB681B0A03F00703184612
:101DDC00BD4680BC704700BF00ED00E080B483B00E
:101DEC0000AF0346FB7197F90730002B0BDBFB7937
:101DFC0003F01F02064997F907305B09012000FA2E
:101E0C0002F241F8232000BF0C37BD4680BC70475E
:101E1C0000E100E080B483B000AF03463960FB7191
:101E2C0097F90730002B0ADB3B68DAB20C4997F9BB
:101E3C0007301201D2B20B4483F800230AE03B684E
:101E4C00DAB20849FB7903F00F03043B1201D2B25A
:101E5C000B441A7600BF0C37BD4680BC704700BFE0
:101E6C0000E100E000ED00E080B489B000AFF86064
:101E7C00B9607A60FB6803F00703FB61FB69C3F18F
:101E8C000703042B28BF0423BB61FB690433062B17
:101E9C0002D9FB69033B00E000237B614FF0FF326A
:101EAC00BB6902FA03F3DA43BB681A407B699A40B8
:101EBC004FF0FF317B6901FA03F3D9437B680B4088
:101ECC00134318462437BD4680BC704780B582B09A
:101EDC0000AF78607B68013BB3F1807F01D30123B5
:101EEC000FE00A4A7B68013B53600F214FF0FF3033
:101EFC00FFF790FF054B00229A60044B07221A60F3
:101F0C00002318460837BD4680BD00BF10E000E036
:101F1C0080B582B000AF78607868FFF72DFF00BF06
:101F2C000837BD4680BD80B586B000AF0346B960AA
:101F3C007A60FB7300237B61FFF742FF78617A685C
:101F4C00B9687869FFF790FF024697F90F30114690
:101F5C001846FFF75FFF00BF1837BD4680BD80B540
:101F6C0082B000AF0346FB7197F907301846FFF7B4
:101F7C0035FF00BF0837BD4680BD80B582B000AFCD
:101F8C0078607868FFF7A2FF034618460837BD460D
:101F9C0080BD000080B48BB000AF78603960002346
:101FAC007B6200233B6269E101227B6A02FA03F344
:101FBC00FB613B681B68FA691340BB61BA69FB693A
:101FCC009A4240F058813B685B689A4A93425ED0D3
:101FDC00984A934275D8984A934258D0964A93425D
:101FEC006FD8964A934252D0944A934269D8944AF5
:101FFC0093424CD0924A934263D8924A934246D031
:10200C00904A93425DD8122B2AD8122B59D801A290
:10201C0052F823F09B200008752000088720000848
:10202C00C9200008CF200008CF200008CF200008CE
:10203C00CF200008CF200008CF200008CF200008B8
:10204C00CF200008CF200008CF200008CF200008A8
:10205C00CF200008CF2000087D2000089120000828
:10206C00794A934213D02CE03B68DB683B6229E051
:10207C003B68DB6804333B6224E03B68DB68083375
:10208C003B621FE03B68DB680C333B621AE03B6849
:10209C009B68002B02D104233B6213E03B689B68D6
:1020AC00012B05D108233B627B68FA691A6109E0B0
:1020BC0008233B627B68FA695A6103E000233B62A8
:1020CC0000E000BFBB69FF2B01D87B6801E07B6897
:1020DC0004337B61BB69FF2B02D87B6A9B0002E057
:1020EC007B6A083B9B003B617B691A680F213B694B
:1020FC0001FA03F3DB431A40396A3B6901FA03F333
:10210C001A437B691A603B685B6803F08053002BB1
:10211C0000F0B1804D4B9B694C4A43F00103936135
:10212C004A4B9B6903F00103BB60BB68484A7B6A5E
:10213C009B08023352F82330FB607B6A03F00303E5
:10214C009B000F2202FA03F3DB43FA681340FB6097
:10215C007B68404A934213D07B683F4A93420DD030
:10216C007B683E4A934207D07B683D4A934201D13B
:10217C00032306E0042304E0022302E0012300E031
:10218C0000237A6A02F0030292009340FA68134328
:10219C00FB602F497B6A9B080233FA6841F82320C5
:1021AC003B685B6803F48013002B06D02D4B9A68B8
:1021BC002C49BB6913438B6006E02A4B9A68BB69B8
:1021CC00DB43284913408B603B685B6803F40013C6
:1021DC00002B06D0234BDA682249BB691343CB6032
:1021EC0006E0204BDA68BB69DB431E491340CB6029
:1021FC003B685B6803F40033002B06D0194B5A681C
:10220C001849BB6913434B6006E0164B5A68BB690F
:10221C00DB43144913404B603B685B6803F4803329
:10222C00002B21D00F4B1A680E49BB6913430B606E
:10223C0021E000BF0000321000003110000022101D
:10224C0000002110000012100000111000100240BC
:10225C000000014000080140000C0140001001404A
:10226C0000140140000401400B4B1A68BB69DB43AE
:10227C00094913400B607B6A01337B623B681A6827
:10228C007B6A22FA03F3002B7FF48EAE00BF00BFF3
:10229C002C37BD4680BC70470004014080B489B027
:1022AC0000AF786039600023FB619AE00122FB6982
:1022BC0002FA03F33A681340BB61BB69002B00F0D0
:1022CC008D804E4AFB699B08023352F823307B61A8
:1022DC00FB6903F003039B000F2202FA03F37A69F4
:1022EC0013407B617B68464A934213D07B68454A16
:1022FC0093420DD07B68444A934207D07B68434A93
:10230C00934201D1032306E0042304E0022302E0FC
:10231C00012300E00023FA6902F0030292009340CB
:10232C007A699A4232D13A4B1A68BB69DB43384915
:10233C0013400B60364B5A68BB69DB43344913407E
:10234C004B60334BDA68BB69DB4331491340CB60DC
:10235C002F4B9A68BB69DB432D4913408B60FB699B
:10236C0003F003039B000F2202FA03F37B61234A61
:10237C00FB699B08023352F823107B69DA431F4830
:10238C00FB699B080A40023340F82320BB69FF2BF2
:10239C0001D87B6801E07B6804333B61BB69FF2B90
:1023AC0002D8FB699B0002E0FB69083B9B00FB60C9
:1023BC003B691A680F21FB6801FA03F3DB431A40EF
:1023CC000421FB6801FA03F31A433B691A607B682A
:1023DC00DA68BB69DB431A407B68DA60FB6901335E
:1023EC00FB613A68FB6922FA03F3002B7FF45EAFC2
:1023FC0000BF00BF2437BD4680BC704700000140C1
:10240C0000080140000C0140001001400014014084
:10241C000004014080B485B000AF78600B467B802F
:10242C007B689A687B881340002B02D00123FB73D6
:10243C0001E00023FB73FB7B18461437BD4680BCC0
:10244C00704780B483B000AF78600B467B80134636
:10245C007B707B78002B03D07A887B681A6103E051
:10246C007B881A047B681A6100BF0C37BD4680BCA0
:10247C00704780B485B000AF78600B467B807B687A
:10248C00DB68FB607A88FB6813401A04FB68D9434D
:10249C007B880B401A437B681A6100BF1437BD461A
:1024AC0080BC704780B582B000AF0346FB80084B00
:1024BC005A69FB881340002B06D0054AFB885361F0
:1024CC00FB88184600F006F800BF0837BD4680BDF3
:1024DC000004014080B483B000AF0346FB8000BF12
:1024EC000C37BD4680BC704780B584B000AF7860B7
:1024FC007B68002B01D101232BE17B6893F83D30E5
:10250C00DBB2002B06D17B68002283F83C20786874
:10251C00FFF7FCF87B68242283F83D207B681B685E
:10252C001A687B681B6822F001021A607B681B68C2
:10253C001A687B681B6842F400421A607B681B684F
:10254C001A687B681B6822F400421A6000F0B0FE27
:10255C00F8607B685B68814A934207D8FB68804AC5
:10256C00934294BF01230023DBB206E0FB687D4A53
:10257C00934294BF01230023DBB2002B01D0012333
:10258C00E7E0FB68784AA2FB03239B0CBB607B68EB
:10259C001B685B6823F03F017B681B68BA680A43C1
:1025AC005A607B681B681B6A23F03F017B685B6881
:1025BC006A4A934202D8BB68013309E0BB684FF406
:1025CC00967202FB03F3694AA2FB03239B090133B6
:1025DC007A6812680B4313627B681B68DB6923F40F
:1025EC004F4222F0FF027B685B685C498B4219D832
:1025FC00FB68591E7B685B685B00B1FBF3F3591CED
:10260C0040F6FC730B40002B0AD0FB68591E7B680C
:10261C005B685B00B1FBF3F30133C3F30B0351E0D5
:10262C0004234FE07B689B68002B11D1FB68581E7C
:10263C007B6859680B465B000B44B0FBF3F301332A
:10264C00C3F30B03002B0CBF01230023DBB212E0FE
:10265C00FB68581E7B6859680B469B000B4499001D
:10266C000B44B0FBF3F30133C3F30B03002B0CBF90
:10267C0001230023DBB2002B01D0012322E07B6875
:10268C009B68002B0ED1FB68581E7B6859680B4663
:10269C005B000B44B0FBF3F30133C3F30B0343F4C4
:1026AC0000430FE0FB68581E7B6859680B469B0083
:1026BC000B4499000B44B0FBF3F30133C3F30B034E
:1026CC0043F44043796809681343CB617B681B680A
:1026DC001B6823F0C0017B68DA697B681B6A1A43AC
:1026EC007B681B680A431A607B681B689B6823F431
:1026FC00034323F0FF037A6811697A68D2681143A7
:10270C007A6812680B4393607B681B68DB6823F064
:10271C00FF017B685A697B689B691A437B681B685D
:10272C000A43DA607B681B681A687B681B6842F096
:10273C0001021A607B6800221A647B68202283F8ED
:10274C003D207B6800221A637B68002283F83E20C0
:10275C00002318461037BD4680BD00BFA08601007F
:10276C007F841E00FF083D0083DE1B43D34D6210A7
:10277C0080B582B000AF78607B68002B01D101235B
:10278C0021E07B68242283F83D207B681B681A6853
:10279C007B681B6822F001021A607868FFF706F864
:1027AC007B6800221A647B68002283F83D207B68DA
:1027BC0000221A637B68002283F83E207B6800228B
:1027CC0083F83C20002318460837BD4680BD000026
:1027DC0080B58AB002AFF8607A603B600B467B81B3
:1027EC00FFF79CFAF8610023BB61FB6893F83D305E
:1027FC00DBB2202B40F01181FB69009319230122DD
:10280C008849F86800F012F90346002B01D0022326
:10281C0004E1FB6893F83C30012B01D10223FDE06D
:10282C00FB68012283F83C20FB681B681B6803F0E3
:10283C000103012B07D0FB681B681A68FB681B6837
:10284C0042F001021A60FB681B681A68FB681B687F
:10285C0022F400621A60FB68242283F83D20FB6896
:10286C0000221A64FB68704ADA62FB681B681A68FB
:10287C00FB681B6842F480721A60FB6900933B682A
:10288C0000224FF00111F86800F0D0F80346002B3D
:10289C000DD0FB681B681B6803F48073B3F5807F55
:1028AC0003D1FB684FF400721A640323B6E07B89F2
:1028BC00DBB21A46FB681B6802F0FE021A61FFF7D6
:1028CC002DFAF861FB681B685B6903F00203022BAD
:1028DC000CBF01230023DBB2FB75FB681B685B6933
:1028EC0003F48063B3F5806F0CBF01230023DBB2CC
:1028FC00BB7525E0FFF712FA0246FB69D31A3A685A
:10290C009A4202D33B68002B03D1FB68A02283F8C8
:10291C003D20FB681B685B6903F00203022B0CBFB4
:10292C0001230023DBB2FB75FB681B685B6903F4B6
:10293C008063B3F5806F0CBF01230023DBB2BB7542
:10294C00FB6893F83D30DBB2A02B05D0FB7D002B50
:10295C0002D1BB7D002BCDD0FB68202283F83D201B
:10296C00FB681B685B6903F00203022B29D1FB682F
:10297C001B681A68FB681B6842F400721A6000231B
:10298C003B61FB681B685B693B61FB681B689B696F
:10299C003B613B69FB690093192301222149F868CB
:1029AC0000F044F80346002B01D0012336E0FB680D
:1029BC00202283F83D20FB68002283F83C20002372
:1029CC002CE0FB681B681A68FB681B6842F40072F9
:1029DC001A60FB681B686FF480625A61FB69009394
:1029EC00192301220F49F86800F020F80346002B48
:1029FC0001D0012312E0BB690133BB61BA697B686A
:102A0C009A42FFF432AFFB68202283F83D20FB682A
:102A1C00002283F83C20012300E0022318462037D3
:102A2C00BD4680BD020010000000FFFF80B584B0E1
:102A3C0000AFF860B9603B601346FB7148E03B683F
:102A4C00B3F1FF3F44D0FFF769F90246BB69D31AD3
:102A5C003A689A4202D33B68002B39D1BB681B0CF5
:102A6C00DBB2012B0DD1FB681B685B69DA43BB68D9
:102A7C0013409BB2002B0CBF01230023DBB21A4680
:102A8C000CE0FB681B689B69DA43BB6813409BB284
:102A9C00002B0CBF01230023DBB21A46FB799A42B0
:102AAC0016D1FB6800221A63FB68202283F83D20B4
:102ABC00FB68002283F83E20FB681B6C43F020026D
:102ACC00FB681A64FB68002283F83C20012323E096
:102ADC00BB681B0CDBB2012B0DD1FB681B685B695F
:102AEC00DA43BB6813409BB2002B0CBF01230023BD
:102AFC00DBB21A460CE0FB681B689B69DA43BB68C7
:102B0C0013409BB2002B0CBF01230023DBB21A46EF
:102B1C00FB799A4293D0002318461037BD4680BDEE
:102B2C0080B586B000AF78607B68002B01D10123A3
:102B3C006CE27B681B6803F00103002B00F08780BC
:102B4C00924B5B6803F00C03042B0CD08F4B5B682F
:102B5C0003F00C03082B12D18C4B5B6803F480330D
:102B6C00B3F5803F0BD1894B1B6803F40033002B6A
:102B7C006CD07B685B68002B68D1012346E27B68D4
:102B8C005B68B3F5803F06D1804B1B687F4A43F4EA
:102B9C00803313602EE07B685B68002B0CD17B4B81
:102BAC001B687A4A23F480331360784B1B68774A8E
:102BBC0023F4802313601DE07B685B68B3F5A02FC2
:102BCC000CD1724B1B68714A43F4802313606F4B1A
:102BDC001B686E4A43F4803313600BE06B4B1B682D
:102BEC006A4A23F480331360684B1B68674A23F4EA
:102BFC00802313607B685B68002B13D0FFF78EF883
:102C0C00386108E0FFF78AF802463B69D31A642B57
:102C1C0001D90323FAE15D4B1B6803F40033002B4D
:102C2C00F0D014E0FFF77AF8386108E0FFF776F897
:102C3C0002463B69D31A642B01D90323E6E1534BBB
:102C4C001B6803F40033002BF0D100E000BF7B685D
:102C5C001B6803F00203002B63D04C4B5B6803F042
:102C6C000C03002B0BD0494B5B6803F00C03082BB7
:102C7C001CD1464B5B6803F48033002B16D1434BBD
:102C8C001B6803F00203002B05D07B681B69012B2A
:102C9C0001D00123BAE13D4B1B6823F0F8027B689D
:102CAC005B69DB00394913430B603AE07B681B69B5
:102CBC00002B20D0364B01221A60FFF72FF8386119
:102CCC0008E0FFF72BF802463B69D31A022B01D917
:102CDC0003239BE12D4B1B6803F00203002BF0D068
:102CEC002A4B1B6823F0F8027B685B69DB002749E1
:102CFC0013430B6015E0264B00221A60FFF70EF809
:102D0C00386108E0FFF70AF802463B69D31A022B38
:102D1C0001D903237AE11D4B1B6803F00203002B3E
:102D2C00F0D17B681B6803F00803002B3AD07B685A
:102D3C009B69002B19D0174B01221A60FEF7EEFF8E
:102D4C00386108E0FEF7EAFF02463B69D31A022B12
:102D5C0001D903235AE10D4B5B6A03F00203002BEC
:102D6C00F0D0012000F0CCFA1CE00A4B00221A60D3
:102D7C00FEF7D4FF38610FE0FEF7D0FF02463B6947
:102D8C00D31A022B08D9032340E100BF00100240E4
:102D9C0000004242800442429E4B5B6A03F00203F5
:102DAC00002BE9D17B681B6803F00403002B00F0B7
:102DBC00A6800023FB75974BDB6903F08053002B37
:102DCC000DD1944BDB69934A43F08053D361914B03
:102DDC00DB6903F08053BB60BB680123FB758E4B32
:102DEC001B6803F48073002B18D18B4B1B688A4A29
:102DFC0043F480731360FEF791FF386108E0FEF72F
:102E0C008DFF02463B69D31A642B01D90323FDE0E5
:102E1C00814B1B6803F48073002BF0D07B68DB685C
:102E2C00012B06D17B4B1B6A7A4A43F001031362D8
:102E3C002DE07B68DB68002B0CD1764B1B6A754A46
:102E4C0023F001031362734B1B6A724A23F00403D1
:102E5C0013621CE07B68DB68052B0CD16D4B1B6A85
:102E6C006C4A43F0040313626A4B1B6A694A43F0D1
:102E7C00010313620BE0674B1B6A664A23F00103E4
:102E8C001362644B1B6A634A23F0040313627B686E
:102E9C00DB68002B15D0FEF741FF38610AE0FEF726
:102EAC003DFF02463B69D31A41F28832934201D965
:102EBC000323ABE0574B1B6A03F00203002BEED04D
:102ECC0014E0FEF72BFF38610AE0FEF727FF0246FD
:102EDC003B69D31A41F28832934201D9032395E01E
:102EEC004C4B1B6A03F00203002BEED1FB7D012B34
:102EFC0005D1484BDB69474A23F08053D3617B688B
:102F0C00DB69002B00F08180424B5B6803F00C0303
:102F1C00082B61D07B68DB69022B46D13F4B00222A
:102F2C001A60FEF7FBFE386108E0FEF7F7FE02467A
:102F3C003B69D31A022B01D9032367E0354B1B687D
:102F4C0003F00073002BF0D17B681B6AB3F5803F54
:102F5C0008D1304B5B6823F400327B689B682D49A9
:102F6C0013434B602B4B5B6823F474127B68196A18
:102F7C007B685B6A0B43274913434B60274B012249
:102F8C001A60FEF7CBFE386108E0FEF7C7FE02467A
:102F9C003B69D31A022B01D9032337E01D4B1B6865
:102FAC0003F00073002BF0D02FE01C4B00221A60B2
:102FBC00FEF7B4FE386108E0FEF7B0FE02463B694E
:102FCC00D31A022B01D9032320E0124B1B6803F008
:102FDC000073002BF0D118E07B68DB69012B01D169
:102FEC00012313E00B4B5B68FB60FB6803F480323E
:102FFC007B681B6A9A4206D1FB6803F470127B68EB
:10300C005B6A9A4201D0012300E00023184618376E
:10301C00BD4680BD0010024000700040600042427E
:10302C0080B584B000AF786039607B68002B01D12B
:10303C000123D0E06A4B1B6803F007033A689A42FD
:10304C0010D9674B1B6823F0070265493B68134393
:10305C000B60634B1B6803F007033A689A4201D07C
:10306C000123B8E07B681B6803F00203002B20D01F
:10307C007B681B6803F00403002B05D0594B5B687D
:10308C00584A43F4E06353607B681B6803F0080301
:10309C00002B05D0534B5B68524A43F4605353608A
:1030AC00504B5B6823F0F0027B689B684D491343DF
:1030BC004B607B681B6803F00103002B40D07B68DE
:1030CC005B68012B07D1474B1B6803F40033002BC3
:1030DC0015D101237FE07B685B68022B07D1414B44
:1030EC001B6803F00073002B09D1012373E03D4BE7
:1030FC001B6803F00203002B01D101236BE0394B59
:10310C005B6823F003027B685B68364913434B60B2
:10311C00FEF704FEF8600AE0FEF700FE0246FB68CC
:10312C00D31A41F28832934201D9032353E02D4B39
:10313C005B6803F00C027B685B689B009A42EBD1E6
:10314C00274B1B6803F007033A689A4210D2244BB2
:10315C001B6823F0070222493B6813430B60204B8A
:10316C001B6803F007033A689A4201D0012332E04E
:10317C007B681B6803F00403002B08D0194B5B68B9
:10318C0023F4E0627B68DB68164913434B607B6871
:10319C001B6803F00803002B09D0124B5B6823F467
:1031AC0060527B681B69DB000E4913434B6000F0D7
:1031BC0021F802460B4B5B681B0903F00F030A490D
:1031CC00CB5C22FA03F3094A1360094B1B681846BF
:1031DC00FEF762FD002318461037BD4680BD00BFC8
:1031EC000020024000100240A4460008800000208D
:1031FC008400002080B487B000AF0023FB60002364
:10320C00BB6000237B6100237B6000233B611E4B72
:10321C005B68FB60FB6803F00C03042B02D0082BEB
:10322C0003D027E0194B3B6127E0FB689B0C03F0B4
:10323C000F03174AD35C7B60FB6803F48033002BCD
:10324C0010D0114B5B685B0C03F00103114AD35C8B
:10325C00BB607B680D4A02FB03F2BB68B2FBF3F365
:10326C007B6104E07B680C4A02FB03F37B617B69A6
:10327C003B6102E0054B3B6100BF3B6918461C37C4
:10328C00BD4680BC704700BF0010024000127A009F
:10329C00BC460008CC46000800093D0080B400AFD5
:1032AC00024B1B681846BD4680BC7047800000204E
:1032BC0080B500AFFFF7F2FF0246054B5B681B0AB7
:1032CC0003F007030349CB5C22FA03F3184680BDD5
:1032DC0000100240B446000880B500AFFFF7DEFFD7
:1032EC000246054B5B68DB0A03F007030349CB5C22
:1032FC0022FA03F3184680BD00100240B4460008C1
:10330C0080B485B000AF78600A4B1B680A4AA2FBF8
:10331C0003235B0A7A6802FB03F3FB6000BFFB68C4
:10332C005A1EFA60002BF9D100BF00BF1437BD46FE
:10333C0080BC704780000020D34D621080B582B0F5
:10334C0000AF78607B68002B01D1012341E07B68E2
:10335C0093F83D30DBB2002B06D17B68002283F85A
:10336C003C207868FEF746FA7B68022283F83D2001
:10337C007B681A687B6804331946104600F05CFAC7
:10338C007B68012283F846207B68012283F83E206B
:10339C007B68012283F83F207B68012283F8402060
:1033AC007B68012283F841207B68012283F842204C
:1033BC007B68012283F843207B68012283F8442038
:1033CC007B68012283F845207B68012283F83D202D
:1033DC00002318460837BD4680BD000080B485B078
:1033EC0000AF78607B6893F83D30DBB2012B01D0E5
:1033FC0001233AE07B68022283F83D207B681B683E
:10340C00DA687B681B6842F00102DA607B681B6833
:10341C00184A93420ED07B681B68B3F1804F09D0D9
:10342C007B681B68144A934204D07B681B68134A60
:10343C00934211D17B681B689B6803F00703FB6008
:10344C00FB68062B10D07B681B681A687B681B68AE
:10345C0042F001021A6007E07B681B681A687B68FF
:10346C001B6842F001021A60002318461437BD464F
:10347C0080BC7047002C0140000400400008004054
:10348C0080B584B000AF78607B681B68DB68FB603C
:10349C007B681B681B69BB60BB6803F00203002BD5
:1034AC0020D0FB6803F00203002B1BD07B681B6849
:1034BC006FF002021A617B6801221A777B681B6825
:1034CC009B6903F00303002B03D0786800F098F994
:1034DC0005E0786800F08BF9786800F09AF97B6861
:1034EC0000221A77BB6803F00403002B20D0FB6882
:1034FC0003F00403002B1BD07B681B686FF00402E5
:10350C001A617B6802221A777B681B689B6903F43B
:10351C004073002B03D0786800F072F905E07868EE
:10352C0000F065F9786800F074F97B6800221A776E
:10353C00BB6803F00803002B20D0FB6803F00803E2
:10354C00002B1BD07B681B686FF008021A617B682C
:10355C0004221A777B681B68DB6903F00303002BDA
:10356C0003D0786800F04CF905E0786800F03FF97A
:10357C00786800F04EF97B6800221A77BB6803F07C
:10358C001003002B20D0FB6803F01003002B1BD082
:10359C007B681B686FF010021A617B6808221A772F
:1035AC007B681B68DB6903F44073002B03D07868DD
:1035BC0000F026F905E0786800F019F9786800F059
:1035CC0028F97B6800221A77BB6803F00103002BF3
:1035DC000CD0FB6803F00103002B07D07B681B6841
:1035EC006FF001021A617868FDF7A4FEBB6803F066
:1035FC008003002B0CD0FB6803F08003002B07D05A
:10360C007B681B686FF080021A61786800F07FFAA3
:10361C00BB6803F04003002B0CD0FB6803F04003A5
:10362C00002B07D07B681B686FF040021A6178682A
:10363C0000F0F8F8BB6803F02003002B0CD0FB68FB
:10364C0003F02003002B07D07B681B686FF020026F
:10365C001A61786800F052FA00BF1037BD4680BD81
:10366C0080B584B000AF786039600023FB737B6851
:10367C0093F83C30012B01D10223B4E07B6801228A
:10368C0083F83C207B68022283F83D207B681B6812
:10369C009B68BB60BB6823F07703BB60BB6823F4FB
:1036AC007F43BB607B681B68BA689A603B681B6889
:1036BC00B3F5005F3ED0B3F5005F00F28780B3F541
:1036CC00805F00F08680B3F5805F7FD8702B1AD0B6
:1036DC00702B7BD8602B50D0602B77D8502B3CD0E4
:1036EC00502B73D8402B58D0402B6FD8302B64D034
:1036FC00302B6BD8202B60D0202B67D8002B5CD0C4
:10370C00102B5AD062E07B6818683B6899683B685C
:10371C005A683B68DB6800F074F97B681B689B682F
:10372C00BB60BB6843F07703BB607B681B68BA68FF
:10373C009A604FE07B6818683B6899683B685A68E8
:10374C003B68DB6800F05DF97B681B689A687B68F6
:10375C001B6842F480429A603CE07B6818683B68C6
:10376C0059683B68DB681A4600F0D4F87B681B6824
:10377C005021184600F02BF92CE07B6818683B6848
:10378C0059683B68DB681A4600F0F2F87B681B68E6
:10379C006021184600F01BF91CE07B6818683B6838
:1037AC0059683B68DB681A4600F0B4F87B681B6804
:1037BC004021184600F00BF90CE07B681A683B6856
:1037CC001B681946104600F002F903E00123FB7355
:1037DC0000E000BF7B68012283F83D207B6800225B
:1037EC0083F83C20FB7B18461037BD4680BD80B467
:1037FC0083B000AF786000BF0C37BD4680BC70470B
:10380C0080B483B000AF786000BF0C37BD4680BC7D
:10381C00704780B483B000AF786000BF0C37BD46F2
:10382C0080BC704780B483B000AF786000BF0C37A9
:10383C00BD4680BC7047000080B485B000AF786096
:10384C0039607B681B68FB607B682F4A93420BD006
:10385C007B68B3F1804F07D07B682C4A934203D02E
:10386C007B682B4A934208D1FB6823F07003FB6002
:10387C003B685B68FA681343FB607B68224A93429F
:10388C000BD07B68B3F1804F07D07B681F4A934203
:10389C0003D07B681E4A934208D1FB6823F4407323
:1038AC00FB603B68DB68FA681343FB60FB6823F042
:1038BC0080023B685B691343FB607B68FA681A60A3
:1038CC003B689A687B68DA623B681A687B689A6224
:1038DC007B680D4A934203D13B681A697B681A6373
:1038EC007B6801225A617B681B6903F00103002B82
:1038FC0005D07B681B6923F001027B681A6100BF4D
:10390C001437BD4680BC7047002C014000040040B9
:10391C000008004080B487B000AFF860B9607A60EE
:10392C00FB681B6A7B61FB681B6A23F00102FB6866
:10393C001A62FB689B693B613B6923F0F0033B61B6
:10394C007B681B013A6913433B617B6923F00A03D3
:10395C007B617A69BB6813437B61FB683A699A6146
:10396C00FB687A691A6200BF1C37BD4680BC704781
:10397C0080B487B000AFF860B9607A60FB681B6AEE
:10398C007B61FB681B6A23F01002FB681A62FB6800
:10399C009B693B613B6923F470433B617B681B0370
:1039AC003A6913433B617B6923F0A0037B61BB68DD
:1039BC001B017A6913437B61FB683A699A61FB6866
:1039CC007A691A6200BF1C37BD4680BC704780B450
:1039DC0085B000AF786039607B689B68FB60FB68E2
:1039EC0023F07003FB603A68FB68134343F0070352
:1039FC00FB607B68FA689A6000BF1437BD4680BCD8
:103A0C00704780B487B000AFF860B9607A603B60F3
:103A1C00FB689B687B617B6923F47F437B613B681C
:103A2C001A027B681A43BB6813437A6913437B61A0
:103A3C00FB687A699A6000BF1C37BD4680BC704732
:103A4C0080B485B000AF786039607B6893F83C3007
:103A5C00012B01D1022346E07B68012283F83C2034
:103A6C007B68022283F83D207B681B685B68FB60E7
:103A7C007B681B689B68BB60FB6823F07003FB6072
:103A8C003B681B68FA681343FB607B681B68FA6829
:103A9C005A607B681B68164A93420ED07B681B6881
:103AAC00B3F1804F09D07B681B68124A934204D053
:103ABC007B681B68104A93420CD1BB6823F08003CF
:103ACC00BB603B685B68BA681343BB607B681B6870
:103ADC00BA689A607B68012283F83D207B680022DB
:103AEC0083F83C20002318461437BD4680BC704731
:103AFC00002C0140000400400008004080B483B05A
:103B0C0000AF786000BF0C37BD4680BC704780B4F6
:103B1C0083B000AF786000BF0C37BD4680BC7047E7
:103B2C0080B582B000AF78607B68002B01D1012397
:103B3C0042E07B6893F84130DBB2002B06D17B6806
:103B4C00002283F840207868FDF778FE7B682422F9
:103B5C0083F841207B681B68DA687B681B6822F459
:103B6C000052DA60786800F02BF87B681B681A69E1
:103B7C007B681B6822F490421A617B681B685A6947
:103B8C007B681B6822F02A025A617B681B68DA6822
:103B9C007B681B6842F40052DA607B6800225A642E
:103BAC007B68202283F841207B68202283F8422006
:103BBC007B6800225A63002318460837BD4680BD37
:103BCC0080B584B000AF78607B681B681B6923F4F8
:103BDC0040517B68DA687B681B680A431A617B6812
:103BEC009A687B681B691A437B685B691343BB60EB
:103BFC007B681B68DB6823F4B05323F00C037A68F2
:103C0C001268B9680B43D3607B681B685B6923F44B
:103C1C0040717B689A697B681B680A435A617B68B0
:103C2C001B682C4A934203D1FFF756FBF86002E065
:103C3C00FFF73EFBF860FA6813469B0013449A00AA
:103C4C001A447B685B689B00B2FBF3F3224AA2FB2D
:103C5C0003235B091901FA6813469B0013449A006D
:103C6C001A447B685B689B00B2FBF3F21A4BA3FB14
:103C7C0002035B09642000FB03F3D31A1B013233EC
:103C8C00154AA2FB03235B0903F0F0031944FA68FD
:103C9C0013469B0013449A001A447B685B689B0094
:103CAC00B2FBF3F20C4BA3FB02035B09642000FB99
:103CBC0003F3D31A1B013233074AA2FB03235B091C
:103CCC0003F00F027B681B680A449A6000BF103730
:103CDC00BD4680BD003801401F85EB51014B186873
:103CEC00704700BF8C00002070B500260C4D0D4CA9
:103CFC00641BA410A64209D100F070FC00260A4DEA
:103D0C000A4C641BA410A64205D170BD55F8043BA7
:103D1C0098470136EEE755F8043B98470136F2E731
:103D2C000447000804470008044700080847000837
:103D3C0003460244934200D1704703F8011BF9E794
:103D4C000CB430B5174B0C1E1D689DB008DA8B23D4
:103D5C004FF0FF302B601DB0BDE8304002B0704713
:103D6C004FF40273ADF814300CBF234604F1FF334B
:103D7C00049307934FF6FF7302900690ADF816303C
:103D8C00284621AB209A02A9019300F069F8431C44
:103D9C00BCBF8B232B60002CDDD00022029B1A7041
:103DAC00D9E700BF8C0000202DE9F0478E688246D1
:103DBC009E420C4690461F4638D88A8912F4906F62
:103DCC0032D0256809690133A5EB010965694B44BB
:103DDC0005EB450505EBD5756D109D4238BF1D46AD
:103DEC00530531D5294600F053FB064650B90C2338
:103DFC004FF0FF30CAF80030A38943F04003A38191
:103E0C00BDE8F0874A46216900F0CEFAA38923F475
:103E1C00906343F08003A38126614E4426603E46A6
:103E2C006561A5EB0905A560BE4200D93E46324648
:103E3C004146206800F0C6FAA36822689B1B3244F6
:103E4C000020A3602260DBE72A4600F07BFB0646DD
:103E5C000028E1D15046216900F0CEFAC7E70000F6
:103E6C002DE9F04F98468B8907461B060D461446E4
:103E7C009DB00ED50B6963B9402100F009FB286099
:103E8C00286120B90C233B604FF0FF30D1E0402378
:103E9C006B610023099320238DF8293030234FF0D8
:103EAC000109CDF80C80DFF8A4818DF82A30234667
:103EBC009A4613F8012B0AB1252AF9D1BAEB040B57
:103ECC000BD05B46224629463846FFF76DFF013082
:103EDC0000F0AA80099A5A4409929AF80030002BF3
:103EEC0000F0A28000234FF0FF32CDE905230AF148
:103EFC00010A049307938DF853301A935446052204
:103F0C0014F8011B514800F041FA049AD8B9D006B4
:103F1C0044BF20238DF85330110744BF2B238DF859
:103F2C0053309AF800302A2B15D0544600204FF00D
:103F3C000A0C079A214611F8013B303B092B4ED94C
:103F4C00B0B1079214E0A0EB080309FA03F3134392
:103F5C00A2460493D2E7039B191D1B680391002B07
:103F6C00BBBF5B4242F0020207930793B8BF0492B7
:103F7C0023782E2B0CD163782A2B35D1039B02345A
:103F8C001A1D1B680392002BB8BF4FF0FF3305932B
:103F9C00DFF8C8A003225046217800F0F7F940B1B1
:103FAC004023A0EB0A0003FA00F0049B0134034306
:103FBC00049314F8011B062225488DF8281000F0F4
:103FCC00E5F9002838D0234B1BBB039B073323F0A8
:103FDC00070308330393099B3344099367E70C46A3
:103FEC0001200CFB0232A5E700234FF00A0C194606
:103FFC0001340593204610F8012B303A092A03D9D5
:10400C00002BC5D00591C3E7044601230CFB01210D
:10401C00F0E703AB00932A4638460F4B04A9AFF3E5
:10402C000080421C0646D6D1AB895B063FF52CAF0F
:10403C0009981DB0BDE8F08F03AB00932A463846B3
:10404C00054B04A900F07CF8EBE700BFCE46000856
:10405C00D846000800000000B53D0008D446000812
:10406C002DE9F047164699468A680B690746934234
:10407C00B8BF1346336091F843200C46DDF820801E
:10408C000AB1013333602368990642BF33680233A7
:10409C003360256815F0060506D104F1190AE368AA
:1040AC0032689B1AAB4228DC94F84320131E22681A
:1040BC0018BF012392062DD44946384604F1430219
:1040CC00C047013020D02368E56803F00603042BB9
:1040DC0018BF002532684FF00006A36808BFAD1A60
:1040EC00226908BF25EAE5759342C4BF9B1AED18F7
:1040FC001A34B5421AD1002008E001235246494631
:10410C003846C047013003D14FF0FF30BDE8F0878F
:10411C000135C4E73020E11881F843005A1C94F8AB
:10412C0045102244023382F84310C5E7012322468E
:10413C0049463846C0470130E6D00136D9E7000081
:10414C002DE9FF470C46277E9146782F80469A46EC
:10415C000C9904F1430207D8622F0AD8002F00F003
:10416C00D980582F00F0A48004F1420684F84270E4
:10417C003AE0A7F16303152BF6D801A050F823F011
:10418C00E5410008F9410008754100087541000837
:10419C007541000875410008F94100087541000897
:1041AC007541000875410008754100080743000877
:1041BC0029420008E94200087541000875410008D1
:1041CC002943000875410008294200087541000880
:1041DC0075410008F14200080B6804F142061A1DF3
:1041EC001B680A6084F842300123A4E02568086843
:1041FC002E0600F104030AD505680B60002D03DAC6
:10420C002D236D4284F843300A235E4819E015F0E3
:10421C00400F05680B6018BF2DB2EFE70B682568DF
:10422C00181D0860280601D51D6802E06906FBD53B
:10423C001D886F2F0CBF08230A235248002184F8D5
:10424C0043106668002EA8BF2168A660A4BF21F0A9
:10425C00040121600DB9002E4DD01646B5FBF3F1CB
:10426C0003FB1157C75D06F8017D2F46BB420D4677
:10427C00F4D9082B0BD12368DF0708D523696168B3
:10428C009942DEBF302306F8013C06F1FF36921B43
:10429C0022614B4621464046CDF800A003AAFFF709
:1042AC00DFFE01304CD14FF0FF3004B0BDE8F08799
:1042BC00344884F845700E68236856F8045B1F0672
:1042CC000E6014D5D90744BF43F0200323601DB9F9
:1042DC00236823F0200323601023AFE7236843F007
:1042EC00200323607823284884F84530E3E75E06F2
:1042FC0048BFADB2E6E71646BBE70B6826681D1D46
:10430C0060690D6035061B6801D5186002E0710606
:10431C00FBD51880002316462361BAE70B681A1DDB
:10432C000A601E6800213046626800F02FF808B160
:10433C00801B606063682361002384F84330A8E726
:10434C003246494640462369D0470130ABD02368FA
:10435C009B0713D4E068039B9842B8BF1846A4E7A8
:10436C000123324649464046D04701309BD00135A7
:10437C00E36803995B1AAB42F2DCEBE7002504F12E
:10438C001906F5E7DF460008F0460008034610B5AD
:10439C00C9B202449342184601D1002003E00478CC
:1043AC0001338C42F6D110BD0A44914200F1FF3327
:1043BC0000D1704710B511F8014B914203F8014F31
:1043CC00F9D110BD884210B501EB020402D9844228
:1043DC00234607D8431EA14208D011F8012B03F83D
:1043EC00012FF8E7014602448A4200D110BD13F8B0
:1043FC00014D02F8014DF7E738B50546002943D0C9
:10440C0051F8043C0C1F002BB8BFE41800F0D0F896
:10441C001E4A1368104633B9636014602846BDE821
:10442C00384000F0CBB8A3420AD9216862189342F5
:10443C0001BF1A685B685218226063600460EDE784
:10444C001A465B680BB1A342FAD911685018A04206
:10445C000BD120680144501883421160DED11868DA
:10446C005B68014411605360D8E702D90C232B60C0
:10447C00D4E7206821188B4201BF19685B680918C2
:10448C00216063605460C9E738BD00BF7001002033
:10449C00F8B5CD1C25F0030508350C2D38BF0C25BF
:1044AC00002D064601DBA94203D90C233360002002
:1044BC00F8BD00F07DF821490A6814469CB9204FDC
:1044CC003B6823B92146304600F062F83860294633
:1044DC00304600F05DF8431C23D10C23304633608A
:1044EC0000F06CF8E3E723685B1B17D40B2B03D9A4
:1044FC0023601C44256004E06368A2420CBF0B607F
:10450C005360304600F05AF804F10B00231D20F0E4
:10451C000700C21ACCD01B1AA350C9E72246646804
:10452C00CCE7C41C24F00304A042E3D0211A30468B
:10453C0000F02EF80130DDD1CFE700BF7001002074
:10454C0074010020F8B5074614460E4621B91146F1
:10455C00BDE8F840FFF79CBF22B9FFF74DFF254699
:10456C002846F8BD00F030F8A0420FD2214638465C
:10457C00FFF78EFF05460028F2D031462246FFF7A2
:10458C0013FF31463846FFF737FFE9E73546E7E7D3
:10459C0038B50023054D044608462B60FDF7C6F9D7
:1045AC00431C02D12B6803B1236038BDF4030020F7
:1045BC00014800F011B800BFFC030020014800F0D6
:1045CC000CB800BFFC03002051F8043C181F002B52
:1045DC00BCBF0B58C018704770477047F8B500BF88
:1045EC00F8BC08BC9E467047F8B500BFF8BC08BCC8
:0445FC009E46704720
:104600004C616E652025643A20253032640000003C
:104610004C616E6520303A20524544004C616E6515
:1046200020313A20475245454E0000004C616E65EE
:1046300020303A20475245454E0000004C616E65DF
:1046400020313A20524544004D4F4445203032003D
:104650004D4F4445203033004D4F44452030340009
:104660004D4F444520554E4B4E4F574E00000000D5
:1046700054696D653A202530326400000000000066
:104680004000000014000000540000002020202002
:10469000202020202020202020202020202020201A
:1046A0000000000000000000000000000102030400
:1046B00006070809000000000102030402030405C4
:1046C000060708090A0B0C0D0E0F10100102232D0E
:1046D000302B2000686C4C0065666745464700300B
:1046E0003132333435363738394142434445460058
:1046F0003031323334353637383961626364656658
:0447000000000000B5
:044704003101000877
:044708000D01000897
:10470C00000C0140000C0140000801400008014071
:10471C001000000400010002010000000100000074
:10472C000100000001000000010000000100000079
:10473C000100000001000000010000000100000069
:10474C000100000001000000010000000100000059
:10475C000100000001000000010000000A00000040
:10476C000A00000005000000020000000300000029
:10477C00050000000200000003000000FF00000024
:10478C0000127A00100000000100000090000020D0
:10479C00000000000000000000000000000000000D
:1047AC0000000000000000000000000000000000FD
:1047BC0000000000000000000000000000000000ED
:1047CC0000000000000000000000000000000000DD
:1047DC0000000000000000000000000000000000CD
:1047EC0000000000000000000000000000000000BD
:0400000508001C2DA6
:00000001FF
